{
  "_format": "hh-sol-artifact-1",
  "contractName": "DaoVault",
  "sourceName": "contracts/examples/DaoVault.sol",
  "abi": [
    {
      "anonymous": false,
      "inputs": [
        {
          "indexed": true,
          "internalType": "address",
          "name": "owner",
          "type": "address"
        },
        {
          "indexed": true,
          "internalType": "address",
          "name": "spender",
          "type": "address"
        },
        {
          "indexed": true,
          "internalType": "uint256",
          "name": "id",
          "type": "uint256"
        }
      ],
      "name": "Approval",
      "type": "event"
    },
    {
      "anonymous": false,
      "inputs": [
        {
          "indexed": true,
          "internalType": "address",
          "name": "owner",
          "type": "address"
        },
        {
          "indexed": true,
          "internalType": "address",
          "name": "operator",
          "type": "address"
        },
        {
          "indexed": false,
          "internalType": "bool",
          "name": "approved",
          "type": "bool"
        }
      ],
      "name": "ApprovalForAll",
      "type": "event"
    },
    {
      "anonymous": false,
      "inputs": [
        {
          "indexed": false,
          "internalType": "address",
          "name": "userAddress",
          "type": "address"
        },
        {
          "indexed": false,
          "internalType": "address payable",
          "name": "relayerAddress",
          "type": "address"
        },
        {
          "indexed": false,
          "internalType": "bytes",
          "name": "functionSignature",
          "type": "bytes"
        }
      ],
      "name": "MetaTransactionExecuted",
      "type": "event"
    },
    {
      "anonymous": false,
      "inputs": [
        {
          "indexed": true,
          "internalType": "address",
          "name": "from",
          "type": "address"
        },
        {
          "indexed": true,
          "internalType": "address",
          "name": "to",
          "type": "address"
        },
        {
          "indexed": true,
          "internalType": "uint256",
          "name": "id",
          "type": "uint256"
        }
      ],
      "name": "Transfer",
      "type": "event"
    },
    {
      "inputs": [
        {
          "internalType": "address",
          "name": "spender",
          "type": "address"
        },
        {
          "internalType": "uint256",
          "name": "id",
          "type": "uint256"
        }
      ],
      "name": "approve",
      "outputs": [],
      "stateMutability": "nonpayable",
      "type": "function"
    },
    {
      "inputs": [
        {
          "internalType": "address",
          "name": "",
          "type": "address"
        }
      ],
      "name": "balanceOf",
      "outputs": [
        {
          "internalType": "uint256",
          "name": "",
          "type": "uint256"
        }
      ],
      "stateMutability": "view",
      "type": "function"
    },
    {
      "inputs": [
        {
          "internalType": "string",
          "name": "_name",
          "type": "string"
        },
        {
          "internalType": "string",
          "name": "_symbol",
          "type": "string"
        },
        {
          "internalType": "address",
          "name": "_token",
          "type": "address"
        },
        {
          "internalType": "address",
          "name": "strategy",
          "type": "address"
        }
      ],
      "name": "baseInit",
      "outputs": [],
      "stateMutability": "nonpayable",
      "type": "function"
    },
    {
      "inputs": [
        {
          "internalType": "uint256",
          "name": "id",
          "type": "uint256"
        }
      ],
      "name": "burnNFTAndWithdraw",
      "outputs": [],
      "stateMutability": "nonpayable",
      "type": "function"
    },
    {
      "inputs": [],
      "name": "currentId",
      "outputs": [
        {
          "internalType": "uint256",
          "name": "",
          "type": "uint256"
        }
      ],
      "stateMutability": "view",
      "type": "function"
    },
    {
      "inputs": [
        {
          "internalType": "uint256",
          "name": "amount",
          "type": "uint256"
        },
        {
          "internalType": "uint256",
          "name": "id",
          "type": "uint256"
        }
      ],
      "name": "depositToId",
      "outputs": [],
      "stateMutability": "nonpayable",
      "type": "function"
    },
    {
      "inputs": [
        {
          "internalType": "uint256",
          "name": "",
          "type": "uint256"
        }
      ],
      "name": "deposits",
      "outputs": [
        {
          "internalType": "uint256",
          "name": "amount",
          "type": "uint256"
        },
        {
          "internalType": "uint256",
          "name": "tracker",
          "type": "uint256"
        }
      ],
      "stateMutability": "view",
      "type": "function"
    },
    {
      "inputs": [],
      "name": "distributeYield",
      "outputs": [],
      "stateMutability": "nonpayable",
      "type": "function"
    },
    {
      "inputs": [
        {
          "internalType": "address",
          "name": "userAddress",
          "type": "address"
        },
        {
          "internalType": "bytes",
          "name": "functionSignature",
          "type": "bytes"
        },
        {
          "internalType": "bytes32",
          "name": "sigR",
          "type": "bytes32"
        },
        {
          "internalType": "bytes32",
          "name": "sigS",
          "type": "bytes32"
        },
        {
          "internalType": "uint8",
          "name": "sigV",
          "type": "uint8"
        }
      ],
      "name": "executeMetaTransaction",
      "outputs": [
        {
          "internalType": "bytes",
          "name": "",
          "type": "bytes"
        }
      ],
      "stateMutability": "payable",
      "type": "function"
    },
    {
      "inputs": [
        {
          "internalType": "uint256",
          "name": "",
          "type": "uint256"
        }
      ],
      "name": "getApproved",
      "outputs": [
        {
          "internalType": "address",
          "name": "",
          "type": "address"
        }
      ],
      "stateMutability": "view",
      "type": "function"
    },
    {
      "inputs": [],
      "name": "getChainID",
      "outputs": [
        {
          "internalType": "uint256",
          "name": "",
          "type": "uint256"
        }
      ],
      "stateMutability": "view",
      "type": "function"
    },
    {
      "inputs": [
        {
          "internalType": "address",
          "name": "user",
          "type": "address"
        }
      ],
      "name": "getNonce",
      "outputs": [
        {
          "internalType": "uint256",
          "name": "nonce",
          "type": "uint256"
        }
      ],
      "stateMutability": "view",
      "type": "function"
    },
    {
      "inputs": [
        {
          "internalType": "string",
          "name": "_name",
          "type": "string"
        },
        {
          "internalType": "string",
          "name": "_symbol",
          "type": "string"
        },
        {
          "internalType": "address",
          "name": "_token",
          "type": "address"
        },
        {
          "internalType": "address",
          "name": "strategy",
          "type": "address"
        }
      ],
      "name": "init",
      "outputs": [],
      "stateMutability": "nonpayable",
      "type": "function"
    },
    {
      "inputs": [],
      "name": "initStrat",
      "outputs": [],
      "stateMutability": "nonpayable",
      "type": "function"
    },
    {
      "inputs": [
        {
          "internalType": "address",
          "name": "",
          "type": "address"
        },
        {
          "internalType": "address",
          "name": "",
          "type": "address"
        }
      ],
      "name": "isApprovedForAll",
      "outputs": [
        {
          "internalType": "bool",
          "name": "",
          "type": "bool"
        }
      ],
      "stateMutability": "view",
      "type": "function"
    },
    {
      "inputs": [
        {
          "internalType": "uint256",
          "name": "amount",
          "type": "uint256"
        }
      ],
      "name": "mintNewNft",
      "outputs": [
        {
          "internalType": "uint256",
          "name": "",
          "type": "uint256"
        }
      ],
      "stateMutability": "nonpayable",
      "type": "function"
    },
    {
      "inputs": [],
      "name": "name",
      "outputs": [
        {
          "internalType": "string",
          "name": "",
          "type": "string"
        }
      ],
      "stateMutability": "view",
      "type": "function"
    },
    {
      "inputs": [
        {
          "internalType": "uint256",
          "name": "",
          "type": "uint256"
        }
      ],
      "name": "ownerOf",
      "outputs": [
        {
          "internalType": "address",
          "name": "",
          "type": "address"
        }
      ],
      "stateMutability": "view",
      "type": "function"
    },
    {
      "inputs": [
        {
          "internalType": "uint256",
          "name": "amount",
          "type": "uint256"
        }
      ],
      "name": "returnManagedFunds",
      "outputs": [],
      "stateMutability": "nonpayable",
      "type": "function"
    },
    {
      "inputs": [
        {
          "internalType": "address",
          "name": "operator",
          "type": "address"
        },
        {
          "internalType": "bool",
          "name": "approved",
          "type": "bool"
        }
      ],
      "name": "setApprovalForAll",
      "outputs": [],
      "stateMutability": "nonpayable",
      "type": "function"
    },
    {
      "inputs": [],
      "name": "strat",
      "outputs": [
        {
          "internalType": "contract IStrategy",
          "name": "",
          "type": "address"
        }
      ],
      "stateMutability": "view",
      "type": "function"
    },
    {
      "inputs": [
        {
          "internalType": "bytes4",
          "name": "interfaceId",
          "type": "bytes4"
        }
      ],
      "name": "supportsInterface",
      "outputs": [
        {
          "internalType": "bool",
          "name": "",
          "type": "bool"
        }
      ],
      "stateMutability": "pure",
      "type": "function"
    },
    {
      "inputs": [],
      "name": "symbol",
      "outputs": [
        {
          "internalType": "string",
          "name": "",
          "type": "string"
        }
      ],
      "stateMutability": "view",
      "type": "function"
    },
    {
      "inputs": [
        {
          "internalType": "uint256",
          "name": "id",
          "type": "uint256"
        }
      ],
      "name": "tokenURI",
      "outputs": [
        {
          "components": [
            {
              "internalType": "string",
              "name": "name",
              "type": "string"
            },
            {
              "internalType": "address",
              "name": "vaultAddress",
              "type": "address"
            },
            {
              "internalType": "uint256",
              "name": "withdrawable",
              "type": "uint256"
            },
            {
              "internalType": "uint256",
              "name": "id",
              "type": "uint256"
            },
            {
              "internalType": "uint256",
              "name": "vaultType",
              "type": "uint256"
            }
          ],
          "internalType": "struct BaseVault.MetaData",
          "name": "",
          "type": "tuple"
        }
      ],
      "stateMutability": "view",
      "type": "function"
    },
    {
      "inputs": [],
      "name": "totalDeposits",
      "outputs": [
        {
          "internalType": "uint256",
          "name": "",
          "type": "uint256"
        }
      ],
      "stateMutability": "view",
      "type": "function"
    },
    {
      "inputs": [
        {
          "internalType": "address",
          "name": "from",
          "type": "address"
        },
        {
          "internalType": "address",
          "name": "to",
          "type": "address"
        },
        {
          "internalType": "uint256",
          "name": "id",
          "type": "uint256"
        }
      ],
      "name": "transferFrom",
      "outputs": [],
      "stateMutability": "nonpayable",
      "type": "function"
    },
    {
      "inputs": [],
      "name": "vaultToken",
      "outputs": [
        {
          "internalType": "contract ERC20",
          "name": "",
          "type": "address"
        }
      ],
      "stateMutability": "view",
      "type": "function"
    },
    {
      "inputs": [
        {
          "internalType": "address",
          "name": "owner",
          "type": "address"
        },
        {
          "internalType": "uint256",
          "name": "nonce",
          "type": "uint256"
        },
        {
          "internalType": "uint256",
          "name": "chainID",
          "type": "uint256"
        },
        {
          "internalType": "bytes",
          "name": "functionSignature",
          "type": "bytes"
        },
        {
          "internalType": "bytes32",
          "name": "sigR",
          "type": "bytes32"
        },
        {
          "internalType": "bytes32",
          "name": "sigS",
          "type": "bytes32"
        },
        {
          "internalType": "uint8",
          "name": "sigV",
          "type": "uint8"
        }
      ],
      "name": "verify",
      "outputs": [
        {
          "internalType": "bool",
          "name": "",
          "type": "bool"
        }
      ],
      "stateMutability": "view",
      "type": "function"
    },
    {
      "inputs": [
        {
          "internalType": "uint256",
          "name": "id",
          "type": "uint256"
        },
        {
          "internalType": "uint256",
          "name": "amount",
          "type": "uint256"
        }
      ],
      "name": "withdrawFromId",
      "outputs": [],
      "stateMutability": "nonpayable",
      "type": "function"
    },
    {
      "inputs": [
        {
          "internalType": "uint256",
          "name": "id",
          "type": "uint256"
        }
      ],
      "name": "withdrawableById",
      "outputs": [
        {
          "internalType": "uint256",
          "name": "",
          "type": "uint256"
        }
      ],
      "stateMutability": "view",
      "type": "function"
    },
    {
      "inputs": [],
      "name": "yieldPerDeposit",
      "outputs": [
        {
          "internalType": "uint256",
          "name": "",
          "type": "uint256"
        }
      ],
      "stateMutability": "view",
      "type": "function"
    },
    {
      "inputs": [
        {
          "internalType": "uint256",
          "name": "id",
          "type": "uint256"
        }
      ],
      "name": "yieldPerId",
      "outputs": [
        {
          "internalType": "uint256",
          "name": "",
          "type": "uint256"
        }
      ],
      "stateMutability": "view",
      "type": "function"
    }
  ],
  "bytecode": "0x6080604052600160035534801561001557600080fd5b50612341806100256000396000f3fe6080604052600436106101e35760003560e01c80636281133d1161010257806395d89b4111610095578063e00dd16111610064578063e00dd161146105e7578063e985e9c5146105fd578063eaaf1fca14610638578063f60fabe51461065857600080fd5b806395d89b411461053c578063a22cb46514610551578063b02c43d014610571578063c87b56dd146105ba57600080fd5b8063703bafd5116100d1578063703bafd5146104c457806370a08231146104e45780637d882097146105115780638a570a121461052757600080fd5b80636281133d1461042e5780636352211e1461044e5780636c9980e1146104845780636d43d9f1146104a457600080fd5b80631ab2f6af1161017a57806340229cbb1161014957806340229cbb146103bb5780634b6d69d3146103db5780634fad28a7146103fb578063564b81ef1461041b57600080fd5b80631ab2f6af1461032257806323b872dd146103505780632d0335ab1461037057806334d894c9146103a657600080fd5b8063095ea7b3116101b6578063095ea7b3146102ad5780630c53c51c146102cf5780630e07f854146102e2578063159b49621461030257600080fd5b806301ffc9a7146101e8578063059b2a101461021d57806306fdde0314610255578063081812fc14610277575b600080fd5b3480156101f457600080fd5b50610208610203366004611f7e565b61066e565b60405190151581526020015b60405180910390f35b34801561022957600080fd5b5060115461023d906001600160a01b031681565b6040516001600160a01b039091168152602001610214565b34801561026157600080fd5b5061026a6106c0565b6040516102149190612173565b34801561028357600080fd5b5061023d610292366004612028565b6006602052600090815260409020546001600160a01b031681565b3480156102b957600080fd5b506102cd6102c8366004611eb6565b61074e565b005b61026a6102dd366004611e46565b610835565b3480156102ee57600080fd5b506102cd6102fd366004611fa6565b6109f4565b34801561030e57600080fd5b506102cd61031d366004612058565b610a06565b34801561032e57600080fd5b5061034261033d366004612028565b610a14565b604051908152602001610214565b34801561035c57600080fd5b506102cd61036b366004611dd5565b610a7a565b34801561037c57600080fd5b5061034261038b366004611d89565b6001600160a01b031660009081526008602052604090205490565b3480156103b257600080fd5b506102cd610c41565b3480156103c757600080fd5b506102cd6103d6366004612028565b610dee565b3480156103e757600080fd5b506103426103f6366004612028565b610e0e565b34801561040757600080fd5b506102cd610416366004612028565b610e19565b34801561042757600080fd5b5046610342565b34801561043a57600080fd5b50610208610449366004611edf565b610ed3565b34801561045a57600080fd5b5061023d610469366004612028565b6005602052600090815260409020546001600160a01b031681565b34801561049057600080fd5b506102cd61049f366004611fa6565b61101b565b3480156104b057600080fd5b506103426104bf366004612028565b6110a8565b3480156104d057600080fd5b50600f5461023d906001600160a01b031681565b3480156104f057600080fd5b506103426104ff366004611d89565b60046020526000908152604090205481565b34801561051d57600080fd5b50610342600b5481565b34801561053357600080fd5b506102cd6110fd565b34801561054857600080fd5b5061026a6112a6565b34801561055d57600080fd5b506102cd61056c366004611e10565b6112b3565b34801561057d57600080fd5b506105a561058c366004612028565b6009602052600090815260409020805460019091015482565b60408051928352602083019190915201610214565b3480156105c657600080fd5b506105da6105d5366004612028565b61131f565b6040516102149190612186565b3480156105f357600080fd5b5061034260035481565b34801561060957600080fd5b50610208610618366004611da3565b600760209081526000928352604080842090915290825290205460ff1681565b34801561064457600080fd5b506102cd610653366004612058565b61141c565b34801561066457600080fd5b50610342600a5481565b60006301ffc9a760e01b6001600160e01b03198316148061069f57506380ac58cd60e01b6001600160e01b03198316145b806106ba5750635b5e139f60e01b6001600160e01b03198316145b92915050565b600080546106cd90612278565b80601f01602080910402602001604051908101604052809291908181526020018280546106f990612278565b80156107465780601f1061071b57610100808354040283529160200191610746565b820191906000526020600020905b81548152906001019060200180831161072957829003601f168201915b505050505081565b6000818152600560205260409020546001600160a01b03163381148061079757506001600160a01b038116600090815260076020908152604080832033845290915290205460ff165b6107d95760405162461bcd60e51b815260206004820152600e60248201526d1393d517d055551213d49256915160921b60448201526064015b60405180910390fd5b60008281526006602052604080822080546001600160a01b0319166001600160a01b0387811691821790925591518593918516917f8c5be1e5ebec7d5bd14f71427d1e84f3dd0314c0f7b2291e5b200ac8c7c3b92591a4505050565b6001600160a01b0385166000908152600860205260409020546060906108619087904688888888610ed3565b6108b75760405162461bcd60e51b815260206004820152602160248201527f5369676e657220616e64207369676e617475726520646f206e6f74206d6174636044820152600d60fb1b60648201526084016107d0565b6001600160a01b03861660009081526008602052604081208054916108db836122b3565b9190505550600080306001600160a01b031687896040516020016109009291906120c1565b60408051601f198184030181529082905261091a916120a5565b6000604051808303816000865af19150503d8060008114610957576040519150601f19603f3d011682016040523d82523d6000602084013e61095c565b606091505b5091509150816109ae5760405162461bcd60e51b815260206004820152601c60248201527f46756e6374696f6e2063616c6c206e6f74207375636365737366756c0000000060448201526064016107d0565b7f5845892132946850460bff5a0083f71031bc5bf9aadcd40f1de79423eac9b10b8833896040516109e19392919061213e565b60405180910390a1979650505050505050565b610a008484848461101b565b50505050565b610a108282611426565b5050565b600a54600082815260096020526040812054909182916402540be40091610a3a91612216565b610a4491906121f6565b600084815260096020526040902060010154909150610a69906402540be400906121f6565b610a739082612235565b9392505050565b6000818152600560205260409020546001600160a01b03848116911614610ad05760405162461bcd60e51b815260206004820152600a60248201526957524f4e475f46524f4d60b01b60448201526064016107d0565b6001600160a01b038216610b1a5760405162461bcd60e51b81526020600482015260116024820152701253959053125117d49150d25412515395607a1b60448201526064016107d0565b336001600160a01b0384161480610b4757506000818152600660205260409020546001600160a01b031633145b80610b7557506001600160a01b038316600090815260076020908152604080832033845290915290205460ff165b610bb25760405162461bcd60e51b815260206004820152600e60248201526d1393d517d055551213d49256915160921b60448201526064016107d0565b6001600160a01b0380841660008181526004602090815260408083208054600019019055938616808352848320805460010190558583526005825284832080546001600160a01b03199081168317909155600690925284832080549092169091559251849392917fddf252ad1be2c89b69c2b068fc378daa952ba7f163c4a11628f55a4df523b3ef91a4505050565b6011546001600160a01b0316610c875760405162461bcd60e51b815260206004820152600b60248201526a4e6f20537472617465677960a81b60448201526064016107d0565b6000612710600b54611388610c9c9190612216565b610ca691906121f6565b90506000600e5482610cb89190612235565b905080600e6000828254610ccc91906121de565b9250508190555080600d6000828254610ce591906121de565b9250508190555080600c6000828254610cfe9190612235565b9091555050600f5460115460405163095ea7b360e01b81526001600160a01b0391821660048201526024810184905291169063095ea7b390604401602060405180830381600087803b158015610d5357600080fd5b505af1158015610d67573d6000803e3d6000fd5b505050506040513d601f19601f82011682018060405250810190610d8b9190611f62565b5060115460405163b6b55f2560e01b8152600481018390526001600160a01b039091169063b6b55f2590602401600060405180830381600087803b158015610dd257600080fd5b505af1158015610de6573d6000803e3d6000fd5b505050505050565b6000610df9826110a8565b9050610e058183611595565b610a1082611811565b60006106ba826118de565b80600c6000828254610e2b91906121de565b925050819055508060126000828254610e449190612235565b9091555050600f546040516323b872dd60e01b8152336004820152306024820152604481018390526001600160a01b03909116906323b872dd90606401602060405180830381600087803b158015610e9b57600080fd5b505af1158015610eaf573d6000803e3d6000fd5b505050506040513d601f19601f82011682018060405250810190610a109190611f62565b600080610f5088308989604051602001610ef094939291906120f8565b60408051601f1981840301815282825280516020918201207f19457468657265756d205369676e6564204d6573736167653a0a33320000000084830152603c8085019190915282518085039091018152605c909301909152815191012090565b6040805160008082526020820180845284905260ff87169282019290925260608101889052608081018790529192509060019060a0016020604051602081039080840390855afa158015610fa8573d6000803e3d6000fd5b5050604051601f1901519150506001600160a01b038116610fff5760405162461bcd60e51b8152602060048201526011602482015270496e76616c6964207369676e617475726560781b60448201526064016107d0565b6001600160a01b038a8116911614915050979650505050505050565b601054156110615760405162461bcd60e51b8152602060048201526013602482015272105b1c9958591e48125b9a5d1a585b1a5e9959606a1b60448201526064016107d0565b61106b8484611a23565b601180546001600160a01b039283166001600160a01b031991821617909155600f8054939092169216919091179055505060016003819055601055565b60006110b382610a14565b600b54600084815260096020526040902054601254600e546110d590846121de565b6110df9190612235565b6110e99190612216565b6110f391906121f6565b6106ba91906121de565b600c54600f546040516370a0823160e01b8152306004820152600092916001600160a01b0316906370a082319060240160206040518083038186803b15801561114557600080fd5b505afa158015611159573d6000803e3d6000fd5b505050506040513d601f19601f8201168201806040525081019061117d9190612040565b6111879190612235565b905080600c600082825461119b91906121de565b90915550506011546000906001600160a01b03166111ba57600061124d565b600d54601160009054906101000a90046001600160a01b03166001600160a01b031663192366376040518163ffffffff1660e01b815260040160206040518083038186803b15801561120b57600080fd5b505afa15801561121f573d6000803e3d6000fd5b505050506040513d601f19601f820116820180604052508101906112439190612040565b61124d9190612235565b905080600d600082825461126191906121de565b9091555050600b5461127382846121de565b611282906402540be400612216565b61128c91906121f6565b600a600082825461129d91906121de565b90915550505050565b600180546106cd90612278565b3360008181526007602090815260408083206001600160a01b03871680855290835292819020805460ff191686151590811790915590519081529192917f17307eab39ab6107e8899845ad3d59bd9653f200f220920489ca2b5937696c31910160405180910390a35050565b61135a6040518060a001604052806060815260200160006001600160a01b031681526020016000815260200160008152602001600081525090565b6040518060a001604052806000805461137290612278565b80601f016020809104026020016040519081016040528092919081815260200182805461139e90612278565b80156113eb5780601f106113c0576101008083540402835291602001916113eb565b820191906000526020600020905b8154815290600101906020018083116113ce57829003601f168201915b5050509183525050306020820152604001611405846110a8565b815260200183815260200160008152509050919050565b610a108183611595565b6000818152600560205260409020546001600160a01b0316611446611a4a565b6001600160a01b03161461145957600080fd5b600b5415611469576114696110fd565b600081815260096020526040812080548492906114879084906121de565b9091555050600a546114999083612216565b600082815260096020526040812060010180549091906114ba9084906121de565b9250508190555081600b60008282546114d391906121de565b9250508190555081600c60008282546114ec91906121de565b9091555050600f546001600160a01b03166323b872dd61150a611a4a565b6040516001600160e01b031960e084901b1681526001600160a01b03909116600482015230602482015260448101859052606401602060405180830381600087803b15801561155857600080fd5b505af115801561156c573d6000803e3d6000fd5b505050506040513d601f19601f820116820180604052508101906115909190611f62565b505050565b61159d6110fd565b6000818152600560205260409020546001600160a01b03166115bd611a4a565b6001600160a01b03161480156115db57506115d7816110a8565b8211155b6115e457600080fd5b600f546040516370a0823160e01b81523060048201526000916001600160a01b0316906370a082319060240160206040518083038186803b15801561162857600080fd5b505afa15801561163c573d6000803e3d6000fd5b505050506040513d601f19601f820116820180604052508101906116609190612040565b905060008061166e84610a14565b9050808511156116f6576116828186612235565b6000858152600960205260408120805492945084929091906116a5908490612235565b9250508190555081600b60008282546116be9190612235565b9091555050600a546000858152600960205260409020546116df9190612216565b60008581526009602052604090206001015561172c565b611705856402540be400612216565b600085815260096020526040812060010180549091906117269084906121de565b90915550505b600083861161173c576000611746565b6117468487612235565b9050801561176f5761175781611aa9565b82600e60008282546117699190612235565b90915550505b600f546001600160a01b031663a9059cbb611788611a4a565b6040516001600160e01b031960e084901b1681526001600160a01b03909116600482015260248101899052604401602060405180830381600087803b1580156117d057600080fd5b505af11580156117e4573d6000803e3d6000fd5b505050506040513d601f19601f820116820180604052508101906118089190611f62565b50505050505050565b6000818152600560205260409020546001600160a01b0316806118635760405162461bcd60e51b815260206004820152600a6024820152691393d517d3525395115160b21b60448201526064016107d0565b6001600160a01b038116600081815260046020908152604080832080546000190190558583526005825280832080546001600160a01b031990811690915560069092528083208054909216909155518492907fddf252ad1be2c89b69c2b068fc378daa952ba7f163c4a11628f55a4df523b3ef908390a45050565b6000806118f46118ec611a4a565b600354611b21565b600b5490915015611907576119076110fd565b6000818152600960205260409020839055600a546119259084612216565b600082815260096020526040812060010180549091906119469084906121de565b9250508190555082600b600082825461195f91906121de565b9250508190555082600c600082825461197891906121de565b9091555050600f546001600160a01b03166323b872dd611996611a4a565b6040516001600160e01b031960e084901b1681526001600160a01b03909116600482015230602482015260448101869052606401602060405180830381600087803b1580156119e457600080fd5b505af11580156119f8573d6000803e3d6000fd5b505050506040513d601f19601f82011682018060405250810190611a1c9190611f62565b5092915050565b8051611a36906001906020840190611c3c565b508151611590906000906020850190611c3c565b600033301415611aa157600080368080601f0160208091040260200160405190810160405280939291908181526020018383808284376000920191909152505050503601516001600160a01b03169150611aa69050565b503390565b90565b601154604051632e1a7d4d60e01b8152600481018390526001600160a01b0390911690632e1a7d4d90602401600060405180830381600087803b158015611aef57600080fd5b505af1158015611b03573d6000803e3d6000fd5b5050505080600d6000828254611b199190612235565b909155505050565b60006001600160a01b038316611b6d5760405162461bcd60e51b81526020600482015260116024820152701253959053125117d49150d25412515395607a1b60448201526064016107d0565b6000828152600560205260409020546001600160a01b031615611bc35760405162461bcd60e51b815260206004820152600e60248201526d1053149150511657d3525395115160921b60448201526064016107d0565b6001600160a01b038316600081815260046020908152604080832080546001908101909155600380549091019055858352600590915280822080546001600160a01b0319168417905551849291907fddf252ad1be2c89b69c2b068fc378daa952ba7f163c4a11628f55a4df523b3ef908290a450919050565b828054611c4890612278565b90600052602060002090601f016020900481019282611c6a5760008555611cb0565b82601f10611c8357805160ff1916838001178555611cb0565b82800160010185558215611cb0579182015b82811115611cb0578251825591602001919060010190611c95565b50611cbc929150611cc0565b5090565b5b80821115611cbc5760008155600101611cc1565b80356001600160a01b0381168114611cec57600080fd5b919050565b600082601f830112611d01578081fd5b813567ffffffffffffffff80821115611d1c57611d1c6122e4565b604051601f8301601f19908116603f01168101908282118183101715611d4457611d446122e4565b81604052838152866020858801011115611d5c578485fd5b8360208701602083013792830160200193909352509392505050565b803560ff81168114611cec57600080fd5b600060208284031215611d9a578081fd5b610a7382611cd5565b60008060408385031215611db5578081fd5b611dbe83611cd5565b9150611dcc60208401611cd5565b90509250929050565b600080600060608486031215611de9578081fd5b611df284611cd5565b9250611e0060208501611cd5565b9150604084013590509250925092565b60008060408385031215611e22578182fd5b611e2b83611cd5565b91506020830135611e3b816122fa565b809150509250929050565b600080600080600060a08688031215611e5d578081fd5b611e6686611cd5565b9450602086013567ffffffffffffffff811115611e81578182fd5b611e8d88828901611cf1565b9450506040860135925060608601359150611eaa60808701611d78565b90509295509295909350565b60008060408385031215611ec8578182fd5b611ed183611cd5565b946020939093013593505050565b600080600080600080600060e0888a031215611ef9578182fd5b611f0288611cd5565b96506020880135955060408801359450606088013567ffffffffffffffff811115611f2b578283fd5b611f378a828b01611cf1565b9450506080880135925060a08801359150611f5460c08901611d78565b905092959891949750929550565b600060208284031215611f73578081fd5b8151610a73816122fa565b600060208284031215611f8f578081fd5b81356001600160e01b031981168114610a73578182fd5b60008060008060808587031215611fbb578384fd5b843567ffffffffffffffff80821115611fd2578586fd5b611fde88838901611cf1565b95506020870135915080821115611ff3578485fd5b5061200087828801611cf1565b93505061200f60408601611cd5565b915061201d60608601611cd5565b905092959194509250565b600060208284031215612039578081fd5b5035919050565b600060208284031215612051578081fd5b5051919050565b6000806040838503121561206a578182fd5b50508035926020909101359150565b6000815180845261209181602086016020860161224c565b601f01601f19169290920160200192915050565b600082516120b781846020870161224c565b9190910192915050565b600083516120d381846020880161224c565b60609390931b6bffffffffffffffffffffffff19169190920190815260140192915050565b8481526bffffffffffffffffffffffff198460601b1660208201528260348201526000825161212e81605485016020870161224c565b9190910160540195945050505050565b6001600160a01b0384811682528316602082015260606040820181905260009061216a90830184612079565b95945050505050565b602081526000610a736020830184612079565b602081526000825160a060208401526121a260c0840182612079565b905060018060a01b0360208501511660408401526040840151606084015260608401516080840152608084015160a08401528091505092915050565b600082198211156121f1576121f16122ce565b500190565b60008261221157634e487b7160e01b81526012600452602481fd5b500490565b6000816000190483118215151615612230576122306122ce565b500290565b600082821015612247576122476122ce565b500390565b60005b8381101561226757818101518382015260200161224f565b83811115610a005750506000910152565b600181811c9082168061228c57607f821691505b602082108114156122ad57634e487b7160e01b600052602260045260246000fd5b50919050565b60006000198214156122c7576122c76122ce565b5060010190565b634e487b7160e01b600052601160045260246000fd5b634e487b7160e01b600052604160045260246000fd5b801515811461230857600080fd5b5056fea26469706673582212208bf717633a433caed09ae01668596d6512222a8d9b0ddcc55a468bcd87bd7b8264736f6c63430008040033",
  "linkReferences": {},
  "deployedLinkReferences": {}
}