{
  "abi": [
    {
      "type": "function",
      "name": "executeMetaTransaction",
      "inputs": [
        {
          "internalType": "address",
          "name": "userAddress",
          "type": "address"
        },
        {
          "internalType": "bytes",
          "name": "functionSignature",
          "type": "bytes"
        },
        {
          "internalType": "bytes32",
          "name": "sigR",
          "type": "bytes32"
        },
        {
          "internalType": "bytes32",
          "name": "sigS",
          "type": "bytes32"
        },
        {
          "internalType": "uint8",
          "name": "sigV",
          "type": "uint8"
        }
      ],
      "outputs": [
        {
          "internalType": "bytes",
          "name": "",
          "type": "bytes"
        }
      ],
      "stateMutability": "payable"
    },
    {
      "type": "function",
      "name": "getChainID",
      "inputs": [],
      "outputs": [
        {
          "internalType": "uint256",
          "name": "",
          "type": "uint256"
        }
      ],
      "stateMutability": "view"
    },
    {
      "type": "function",
      "name": "getNonce",
      "inputs": [
        {
          "internalType": "address",
          "name": "user",
          "type": "address"
        }
      ],
      "outputs": [
        {
          "internalType": "uint256",
          "name": "nonce",
          "type": "uint256"
        }
      ],
      "stateMutability": "view"
    },
    {
      "type": "function",
      "name": "verify",
      "inputs": [
        {
          "internalType": "address",
          "name": "owner",
          "type": "address"
        },
        {
          "internalType": "uint256",
          "name": "nonce",
          "type": "uint256"
        },
        {
          "internalType": "uint256",
          "name": "chainID",
          "type": "uint256"
        },
        {
          "internalType": "bytes",
          "name": "functionSignature",
          "type": "bytes"
        },
        {
          "internalType": "bytes32",
          "name": "sigR",
          "type": "bytes32"
        },
        {
          "internalType": "bytes32",
          "name": "sigS",
          "type": "bytes32"
        },
        {
          "internalType": "uint8",
          "name": "sigV",
          "type": "uint8"
        }
      ],
      "outputs": [
        {
          "internalType": "bool",
          "name": "",
          "type": "bool"
        }
      ],
      "stateMutability": "view"
    },
    {
      "type": "event",
      "name": "MetaTransactionExecuted",
      "inputs": [
        {
          "name": "userAddress",
          "type": "address",
          "indexed": false
        },
        {
          "name": "relayerAddress",
          "type": "address",
          "indexed": false
        },
        {
          "name": "functionSignature",
          "type": "bytes",
          "indexed": false
        }
      ],
      "anonymous": false
    }
  ],
  "bytecode": {
    "object": "0x608060405234801561001057600080fd5b50610785806100206000396000f3fe60806040526004361061003f5760003560e01c80630c53c51c146100445780632d0335ab1461006d578063564b81ef146100b15780636281133d146100c4575b600080fd5b6100576100523660046104d0565b6100f4565b604051610064919061059e565b60405180910390f35b34801561007957600080fd5b506100a36100883660046105b8565b6001600160a01b031660009081526020819052604090205490565b604051908152602001610064565b3480156100bd57600080fd5b50466100a3565b3480156100d057600080fd5b506100e46100df3660046105d3565b6102b8565b6040519015158152602001610064565b6001600160a01b03851660009081526020819052604090205460609061012090879046888888886102b8565b61017b5760405162461bcd60e51b815260206004820152602160248201527f5369676e657220616e64207369676e617475726520646f206e6f74206d6174636044820152600d60fb1b60648201526084015b60405180910390fd5b6001600160a01b038616600090815260208190526040812080549161019f83610658565b9190505550600080306001600160a01b031687896040516020016101c4929190610681565b60408051601f19818403018152908290526101de916106b8565b6000604051808303816000865af19150503d806000811461021b576040519150601f19603f3d011682016040523d82523d6000602084013e610220565b606091505b5091509150816102725760405162461bcd60e51b815260206004820152601c60248201527f46756e6374696f6e2063616c6c206e6f74207375636365737366756c000000006044820152606401610172565b7f5845892132946850460bff5a0083f71031bc5bf9aadcd40f1de79423eac9b10b8833896040516102a5939291906106d4565b60405180910390a1979650505050505050565b600080610335883089896040516020016102d59493929190610709565b60408051601f1981840301815282825280516020918201207f19457468657265756d205369676e6564204d6573736167653a0a33320000000084830152603c8085019190915282518085039091018152605c909301909152815191012090565b6040805160008082526020820180845284905260ff87169282019290925260608101889052608081018790529192509060019060a0016020604051602081039080840390855afa15801561038d573d6000803e3d6000fd5b5050604051601f1901519150506001600160a01b0381166103e45760405162461bcd60e51b8152602060048201526011602482015270496e76616c6964207369676e617475726560781b6044820152606401610172565b6001600160a01b038a8116911614915050979650505050505050565b80356001600160a01b038116811461041757600080fd5b919050565b634e487b7160e01b600052604160045260246000fd5b600082601f83011261044357600080fd5b813567ffffffffffffffff8082111561045e5761045e61041c565b604051601f8301601f19908116603f011681019082821181831017156104865761048661041c565b8160405283815286602085880101111561049f57600080fd5b836020870160208301376000602085830101528094505050505092915050565b803560ff8116811461041757600080fd5b600080600080600060a086880312156104e857600080fd5b6104f186610400565b9450602086013567ffffffffffffffff81111561050d57600080fd5b61051988828901610432565b9450506040860135925060608601359150610536608087016104bf565b90509295509295909350565b60005b8381101561055d578181015183820152602001610545565b8381111561056c576000848401525b50505050565b6000815180845261058a816020860160208601610542565b601f01601f19169290920160200192915050565b6020815260006105b16020830184610572565b9392505050565b6000602082840312156105ca57600080fd5b6105b182610400565b600080600080600080600060e0888a0312156105ee57600080fd5b6105f788610400565b96506020880135955060408801359450606088013567ffffffffffffffff81111561062157600080fd5b61062d8a828b01610432565b9450506080880135925060a0880135915061064a60c089016104bf565b905092959891949750929550565b600060001982141561067a57634e487b7160e01b600052601160045260246000fd5b5060010190565b60008351610693818460208801610542565b60609390931b6bffffffffffffffffffffffff19169190920190815260140192915050565b600082516106ca818460208701610542565b9190910192915050565b6001600160a01b0384811682528316602082015260606040820181905260009061070090830184610572565b95945050505050565b8481526bffffffffffffffffffffffff198460601b1660208201528260348201526000825161073f816054850160208701610542565b919091016054019594505050505056fea26469706673582212200a56be1948cb575c843ae29b6bcf27305f5cfd34527ace541787f4edf01fcd4e64736f6c634300080b0033",
    "linkReferences": {}
  }
}