{
  "abi": [
    {
      "type": "function",
      "name": "approve",
      "inputs": [
        {
          "internalType": "address",
          "name": "spender",
          "type": "address"
        },
        {
          "internalType": "uint256",
          "name": "id",
          "type": "uint256"
        }
      ],
      "outputs": [],
      "stateMutability": "nonpayable"
    },
    {
      "type": "function",
      "name": "balanceOf",
      "inputs": [
        {
          "internalType": "address",
          "name": "",
          "type": "address"
        }
      ],
      "outputs": [
        {
          "internalType": "uint256",
          "name": "",
          "type": "uint256"
        }
      ],
      "stateMutability": "view"
    },
    {
      "type": "function",
      "name": "baseInit",
      "inputs": [
        {
          "internalType": "string",
          "name": "_name",
          "type": "string"
        },
        {
          "internalType": "string",
          "name": "_symbol",
          "type": "string"
        },
        {
          "internalType": "address",
          "name": "_token",
          "type": "address"
        },
        {
          "internalType": "address",
          "name": "strategy",
          "type": "address"
        }
      ],
      "outputs": [],
      "stateMutability": "nonpayable"
    },
    {
      "type": "function",
      "name": "burnNFTAndWithdraw",
      "inputs": [
        {
          "internalType": "uint256",
          "name": "id",
          "type": "uint256"
        }
      ],
      "outputs": [],
      "stateMutability": "nonpayable"
    },
    {
      "type": "function",
      "name": "currentId",
      "inputs": [],
      "outputs": [
        {
          "internalType": "uint256",
          "name": "",
          "type": "uint256"
        }
      ],
      "stateMutability": "view"
    },
    {
      "type": "function",
      "name": "depositToId",
      "inputs": [
        {
          "internalType": "uint256",
          "name": "amount",
          "type": "uint256"
        },
        {
          "internalType": "uint256",
          "name": "id",
          "type": "uint256"
        }
      ],
      "outputs": [],
      "stateMutability": "nonpayable"
    },
    {
      "type": "function",
      "name": "deposits",
      "inputs": [
        {
          "internalType": "uint256",
          "name": "",
          "type": "uint256"
        }
      ],
      "outputs": [
        {
          "internalType": "uint256",
          "name": "amount",
          "type": "uint256"
        },
        {
          "internalType": "uint256",
          "name": "tracker",
          "type": "uint256"
        }
      ],
      "stateMutability": "view"
    },
    {
      "type": "function",
      "name": "distributeYield",
      "inputs": [],
      "outputs": [],
      "stateMutability": "nonpayable"
    },
    {
      "type": "function",
      "name": "executeMetaTransaction",
      "inputs": [
        {
          "internalType": "address",
          "name": "userAddress",
          "type": "address"
        },
        {
          "internalType": "bytes",
          "name": "functionSignature",
          "type": "bytes"
        },
        {
          "internalType": "bytes32",
          "name": "sigR",
          "type": "bytes32"
        },
        {
          "internalType": "bytes32",
          "name": "sigS",
          "type": "bytes32"
        },
        {
          "internalType": "uint8",
          "name": "sigV",
          "type": "uint8"
        }
      ],
      "outputs": [
        {
          "internalType": "bytes",
          "name": "",
          "type": "bytes"
        }
      ],
      "stateMutability": "payable"
    },
    {
      "type": "function",
      "name": "getApproved",
      "inputs": [
        {
          "internalType": "uint256",
          "name": "",
          "type": "uint256"
        }
      ],
      "outputs": [
        {
          "internalType": "address",
          "name": "",
          "type": "address"
        }
      ],
      "stateMutability": "view"
    },
    {
      "type": "function",
      "name": "getChainID",
      "inputs": [],
      "outputs": [
        {
          "internalType": "uint256",
          "name": "",
          "type": "uint256"
        }
      ],
      "stateMutability": "view"
    },
    {
      "type": "function",
      "name": "getNonce",
      "inputs": [
        {
          "internalType": "address",
          "name": "user",
          "type": "address"
        }
      ],
      "outputs": [
        {
          "internalType": "uint256",
          "name": "nonce",
          "type": "uint256"
        }
      ],
      "stateMutability": "view"
    },
    {
      "type": "function",
      "name": "init",
      "inputs": [
        {
          "internalType": "string",
          "name": "_name",
          "type": "string"
        },
        {
          "internalType": "string",
          "name": "_symbol",
          "type": "string"
        },
        {
          "internalType": "address",
          "name": "_token",
          "type": "address"
        },
        {
          "internalType": "address",
          "name": "strategy",
          "type": "address"
        },
        {
          "internalType": "uint16",
          "name": "_tokenPercent",
          "type": "uint16"
        },
        {
          "internalType": "address",
          "name": "_recipient",
          "type": "address"
        }
      ],
      "outputs": [],
      "stateMutability": "nonpayable"
    },
    {
      "type": "function",
      "name": "initStrat",
      "inputs": [],
      "outputs": [],
      "stateMutability": "nonpayable"
    },
    {
      "type": "function",
      "name": "isApprovedForAll",
      "inputs": [
        {
          "internalType": "address",
          "name": "",
          "type": "address"
        },
        {
          "internalType": "address",
          "name": "",
          "type": "address"
        }
      ],
      "outputs": [
        {
          "internalType": "bool",
          "name": "",
          "type": "bool"
        }
      ],
      "stateMutability": "view"
    },
    {
      "type": "function",
      "name": "mintNewNft",
      "inputs": [
        {
          "internalType": "uint256",
          "name": "amount",
          "type": "uint256"
        }
      ],
      "outputs": [
        {
          "internalType": "uint256",
          "name": "",
          "type": "uint256"
        }
      ],
      "stateMutability": "nonpayable"
    },
    {
      "type": "function",
      "name": "name",
      "inputs": [],
      "outputs": [
        {
          "internalType": "string",
          "name": "",
          "type": "string"
        }
      ],
      "stateMutability": "view"
    },
    {
      "type": "function",
      "name": "ownerOf",
      "inputs": [
        {
          "internalType": "uint256",
          "name": "",
          "type": "uint256"
        }
      ],
      "outputs": [
        {
          "internalType": "address",
          "name": "",
          "type": "address"
        }
      ],
      "stateMutability": "view"
    },
    {
      "type": "function",
      "name": "setApprovalForAll",
      "inputs": [
        {
          "internalType": "address",
          "name": "operator",
          "type": "address"
        },
        {
          "internalType": "bool",
          "name": "approved",
          "type": "bool"
        }
      ],
      "outputs": [],
      "stateMutability": "nonpayable"
    },
    {
      "type": "function",
      "name": "strat",
      "inputs": [],
      "outputs": [
        {
          "internalType": "contract IStrategy",
          "name": "",
          "type": "address"
        }
      ],
      "stateMutability": "view"
    },
    {
      "type": "function",
      "name": "supportsInterface",
      "inputs": [
        {
          "internalType": "bytes4",
          "name": "interfaceId",
          "type": "bytes4"
        }
      ],
      "outputs": [
        {
          "internalType": "bool",
          "name": "",
          "type": "bool"
        }
      ],
      "stateMutability": "pure"
    },
    {
      "type": "function",
      "name": "symbol",
      "inputs": [],
      "outputs": [
        {
          "internalType": "string",
          "name": "",
          "type": "string"
        }
      ],
      "stateMutability": "view"
    },
    {
      "type": "function",
      "name": "tokenURI",
      "inputs": [
        {
          "internalType": "uint256",
          "name": "id",
          "type": "uint256"
        }
      ],
      "outputs": [
        {
          "internalType": "struct BaseVault.MetaData",
          "name": "",
          "type": "tuple",
          "components": [
            {
              "type": "string"
            },
            {
              "type": "address"
            },
            {
              "type": "uint256"
            },
            {
              "type": "uint256"
            },
            {
              "type": "uint256"
            }
          ]
        }
      ],
      "stateMutability": "view"
    },
    {
      "type": "function",
      "name": "totalDeposits",
      "inputs": [],
      "outputs": [
        {
          "internalType": "uint256",
          "name": "",
          "type": "uint256"
        }
      ],
      "stateMutability": "view"
    },
    {
      "type": "function",
      "name": "transferFrom",
      "inputs": [
        {
          "internalType": "address",
          "name": "from",
          "type": "address"
        },
        {
          "internalType": "address",
          "name": "to",
          "type": "address"
        },
        {
          "internalType": "uint256",
          "name": "id",
          "type": "uint256"
        }
      ],
      "outputs": [],
      "stateMutability": "nonpayable"
    },
    {
      "type": "function",
      "name": "vaultToken",
      "inputs": [],
      "outputs": [
        {
          "internalType": "contract ERC20",
          "name": "",
          "type": "address"
        }
      ],
      "stateMutability": "view"
    },
    {
      "type": "function",
      "name": "verify",
      "inputs": [
        {
          "internalType": "address",
          "name": "owner",
          "type": "address"
        },
        {
          "internalType": "uint256",
          "name": "nonce",
          "type": "uint256"
        },
        {
          "internalType": "uint256",
          "name": "chainID",
          "type": "uint256"
        },
        {
          "internalType": "bytes",
          "name": "functionSignature",
          "type": "bytes"
        },
        {
          "internalType": "bytes32",
          "name": "sigR",
          "type": "bytes32"
        },
        {
          "internalType": "bytes32",
          "name": "sigS",
          "type": "bytes32"
        },
        {
          "internalType": "uint8",
          "name": "sigV",
          "type": "uint8"
        }
      ],
      "outputs": [
        {
          "internalType": "bool",
          "name": "",
          "type": "bool"
        }
      ],
      "stateMutability": "view"
    },
    {
      "type": "function",
      "name": "withdrawFromId",
      "inputs": [
        {
          "internalType": "uint256",
          "name": "id",
          "type": "uint256"
        },
        {
          "internalType": "uint256",
          "name": "amount",
          "type": "uint256"
        }
      ],
      "outputs": [],
      "stateMutability": "nonpayable"
    },
    {
      "type": "function",
      "name": "withdrawToRecipient",
      "inputs": [],
      "outputs": [],
      "stateMutability": "nonpayable"
    },
    {
      "type": "function",
      "name": "withdrawableById",
      "inputs": [
        {
          "internalType": "uint256",
          "name": "id",
          "type": "uint256"
        }
      ],
      "outputs": [
        {
          "internalType": "uint256",
          "name": "claimId",
          "type": "uint256"
        }
      ],
      "stateMutability": "view"
    },
    {
      "type": "function",
      "name": "yieldForRecipient",
      "inputs": [],
      "outputs": [
        {
          "internalType": "uint256",
          "name": "",
          "type": "uint256"
        }
      ],
      "stateMutability": "view"
    },
    {
      "type": "function",
      "name": "yieldPerDeposit",
      "inputs": [],
      "outputs": [
        {
          "internalType": "uint256",
          "name": "",
          "type": "uint256"
        }
      ],
      "stateMutability": "view"
    },
    {
      "type": "function",
      "name": "yieldPerId",
      "inputs": [
        {
          "internalType": "uint256",
          "name": "id",
          "type": "uint256"
        }
      ],
      "outputs": [
        {
          "internalType": "uint256",
          "name": "",
          "type": "uint256"
        }
      ],
      "stateMutability": "view"
    },
    {
      "type": "event",
      "name": "Approval",
      "inputs": [
        {
          "name": "owner",
          "type": "address",
          "indexed": true
        },
        {
          "name": "spender",
          "type": "address",
          "indexed": true
        },
        {
          "name": "id",
          "type": "uint256",
          "indexed": true
        }
      ],
      "anonymous": false
    },
    {
      "type": "event",
      "name": "ApprovalForAll",
      "inputs": [
        {
          "name": "owner",
          "type": "address",
          "indexed": true
        },
        {
          "name": "operator",
          "type": "address",
          "indexed": true
        },
        {
          "name": "approved",
          "type": "bool",
          "indexed": false
        }
      ],
      "anonymous": false
    },
    {
      "type": "event",
      "name": "MetaTransactionExecuted",
      "inputs": [
        {
          "name": "userAddress",
          "type": "address",
          "indexed": false
        },
        {
          "name": "relayerAddress",
          "type": "address",
          "indexed": false
        },
        {
          "name": "functionSignature",
          "type": "bytes",
          "indexed": false
        }
      ],
      "anonymous": false
    },
    {
      "type": "event",
      "name": "Transfer",
      "inputs": [
        {
          "name": "from",
          "type": "address",
          "indexed": true
        },
        {
          "name": "to",
          "type": "address",
          "indexed": true
        },
        {
          "name": "id",
          "type": "uint256",
          "indexed": true
        }
      ],
      "anonymous": false
    }
  ],
  "bytecode": {
    "object": "0x6080604052600160035534801561001557600080fd5b5061240a806100256000396000f3fe6080604052600436106101ee5760003560e01c80636352211e1161010d578063a22cb465116100a0578063e00dd1611161006f578063e00dd161146105e8578063e985e9c5146105fe578063eaaf1fca14610639578063f60fabe514610659578063f74d4ef81461066f57600080fd5b8063a22cb4651461053c578063b02c43d01461055c578063c16845e7146105a5578063c87b56dd146105bb57600080fd5b806370a08231116100dc57806370a08231146104cf5780637d882097146104fc5780638a570a121461051257806395d89b411461052757600080fd5b80636352211e146104395780636c9980e11461046f5780636d43d9f11461048f578063703bafd5146104af57600080fd5b806323b872dd116101855780634b6d69d3116101545780634b6d69d3146103c657806353914b57146103e6578063564b81ef146104065780636281133d1461041957600080fd5b806323b872dd1461033b5780632d0335ab1461035b57806334d894c91461039157806340229cbb146103a657600080fd5b8063095ea7b3116101c1578063095ea7b3146102b85780630c53c51c146102da578063159b4962146102ed5780631ab2f6af1461030d57600080fd5b806301ffc9a7146101f3578063059b2a101461022857806306fdde0314610260578063081812fc14610282575b600080fd5b3480156101ff57600080fd5b5061021361020e366004611cd5565b610684565b60405190151581526020015b60405180910390f35b34801561023457600080fd5b50601154610248906001600160a01b031681565b6040516001600160a01b03909116815260200161021f565b34801561026c57600080fd5b506102756106d6565b60405161021f9190611d5b565b34801561028e57600080fd5b5061024861029d366004611d6e565b6006602052600090815260409020546001600160a01b031681565b3480156102c457600080fd5b506102d86102d3366004611da3565b610764565b005b6102756102e8366004611e81565b61084b565b3480156102f957600080fd5b506102d8610308366004611ef3565b610a0a565b34801561031957600080fd5b5061032d610328366004611d6e565b610a18565b60405190815260200161021f565b34801561034757600080fd5b506102d8610356366004611f15565b610a7e565b34801561036757600080fd5b5061032d610376366004611f51565b6001600160a01b031660009081526008602052604090205490565b34801561039d57600080fd5b506102d8610c45565b3480156103b257600080fd5b506102d86103c1366004611d6e565b610de3565b3480156103d257600080fd5b5061032d6103e1366004611d6e565b610e03565b3480156103f257600080fd5b506102d8610401366004611f6c565b610e0e565b34801561041257600080fd5b504661032d565b34801561042557600080fd5b5061021361043436600461201a565b610e89565b34801561044557600080fd5b50610248610454366004611d6e565b6005602052600090815260409020546001600160a01b031681565b34801561047b57600080fd5b506102d861048a36600461209f565b610fd1565b34801561049b57600080fd5b5061032d6104aa366004611d6e565b61105e565b3480156104bb57600080fd5b50600f54610248906001600160a01b031681565b3480156104db57600080fd5b5061032d6104ea366004611f51565b60046020526000908152604090205481565b34801561050857600080fd5b5061032d600b5481565b34801561051e57600080fd5b506102d8611082565b34801561053357600080fd5b5061027561125a565b34801561054857600080fd5b506102d8610557366004612132565b611267565b34801561056857600080fd5b50610590610577366004611d6e565b6009602052600090815260409020805460019091015482565b6040805192835260208301919091520161021f565b3480156105b157600080fd5b5061032d60135481565b3480156105c757600080fd5b506105db6105d6366004611d6e565b6112d3565b60405161021f9190612169565b3480156105f457600080fd5b5061032d60035481565b34801561060a57600080fd5b506102136106193660046121c1565b600760209081526000928352604080842090915290825290205460ff1681565b34801561064557600080fd5b506102d8610654366004611ef3565b6113d0565b34801561066557600080fd5b5061032d600a5481565b34801561067b57600080fd5b506102d86113da565b60006301ffc9a760e01b6001600160e01b0319831614806106b557506380ac58cd60e01b6001600160e01b03198316145b806106d05750635b5e139f60e01b6001600160e01b03198316145b92915050565b600080546106e3906121f4565b80601f016020809104026020016040519081016040528092919081815260200182805461070f906121f4565b801561075c5780601f106107315761010080835404028352916020019161075c565b820191906000526020600020905b81548152906001019060200180831161073f57829003601f168201915b505050505081565b6000818152600560205260409020546001600160a01b0316338114806107ad57506001600160a01b038116600090815260076020908152604080832033845290915290205460ff165b6107ef5760405162461bcd60e51b815260206004820152600e60248201526d1393d517d055551213d49256915160921b60448201526064015b60405180910390fd5b60008281526006602052604080822080546001600160a01b0319166001600160a01b0387811691821790925591518593918516917f8c5be1e5ebec7d5bd14f71427d1e84f3dd0314c0f7b2291e5b200ac8c7c3b92591a4505050565b6001600160a01b0385166000908152600860205260409020546060906108779087904688888888610e89565b6108cd5760405162461bcd60e51b815260206004820152602160248201527f5369676e657220616e64207369676e617475726520646f206e6f74206d6174636044820152600d60fb1b60648201526084016107e6565b6001600160a01b03861660009081526008602052604081208054916108f183612245565b9190505550600080306001600160a01b03168789604051602001610916929190612260565b60408051601f198184030181529082905261093091612297565b6000604051808303816000865af19150503d806000811461096d576040519150601f19603f3d011682016040523d82523d6000602084013e610972565b606091505b5091509150816109c45760405162461bcd60e51b815260206004820152601c60248201527f46756e6374696f6e2063616c6c206e6f74207375636365737366756c0000000060448201526064016107e6565b7f5845892132946850460bff5a0083f71031bc5bf9aadcd40f1de79423eac9b10b8833896040516109f7939291906122b3565b60405180910390a1979650505050505050565b610a148282611462565b5050565b600a54600082815260096020526040812054909182916402540be40091610a3e916122e8565b610a489190612307565b600084815260096020526040902060010154909150610a6d906402540be40090612307565b610a779082612329565b9392505050565b6000818152600560205260409020546001600160a01b03848116911614610ad45760405162461bcd60e51b815260206004820152600a60248201526957524f4e475f46524f4d60b01b60448201526064016107e6565b6001600160a01b038216610b1e5760405162461bcd60e51b81526020600482015260116024820152701253959053125117d49150d25412515395607a1b60448201526064016107e6565b336001600160a01b0384161480610b4b57506000818152600660205260409020546001600160a01b031633145b80610b7957506001600160a01b038316600090815260076020908152604080832033845290915290205460ff165b610bb65760405162461bcd60e51b815260206004820152600e60248201526d1393d517d055551213d49256915160921b60448201526064016107e6565b6001600160a01b0380841660008181526004602090815260408083208054600019019055938616808352848320805460010190558583526005825284832080546001600160a01b03199081168317909155600690925284832080549092169091559251849392917fddf252ad1be2c89b69c2b068fc378daa952ba7f163c4a11628f55a4df523b3ef91a4505050565b6011546001600160a01b0316610c8b5760405162461bcd60e51b815260206004820152600b60248201526a4e6f20537472617465677960a81b60448201526064016107e6565b6000612710600b54611388610ca091906122e8565b610caa9190612307565b90506000600e5482610cbc9190612329565b905080600e6000828254610cd09190612340565b9250508190555080600d6000828254610ce99190612340565b9250508190555080600c6000828254610d029190612329565b9091555050600f5460115460405163095ea7b360e01b81526001600160a01b0391821660048201526024810184905291169063095ea7b3906044016020604051808303816000875af1158015610d5c573d6000803e3d6000fd5b505050506040513d601f19601f82011682018060405250810190610d809190612358565b5060115460405163b6b55f2560e01b8152600481018390526001600160a01b039091169063b6b55f2590602401600060405180830381600087803b158015610dc757600080fd5b505af1158015610ddb573d6000803e3d6000fd5b505050505050565b6000610dee8261105e565b9050610dfa81836115c2565b610a1482611820565b60006106d0826118ed565b60105415610e1b57600080fd5b610e2786868686610fd1565b6040805160608101825261ffff93909316808452600360208501526001600160a01b039290921692018290526012805463ffffffff19169091176203000017640100000000600160c01b03191664010000000090920291909117905550505050565b600080610f0688308989604051602001610ea69493929190612375565b60408051601f1981840301815282825280516020918201207f19457468657265756d205369676e6564204d6573736167653a0a33320000000084830152603c8085019190915282518085039091018152605c909301909152815191012090565b6040805160008082526020820180845284905260ff87169282019290925260608101889052608081018790529192509060019060a0016020604051602081039080840390855afa158015610f5e573d6000803e3d6000fd5b5050604051601f1901519150506001600160a01b038116610fb55760405162461bcd60e51b8152602060048201526011602482015270496e76616c6964207369676e617475726560781b60448201526064016107e6565b6001600160a01b038a8116911614915050979650505050505050565b601054156110175760405162461bcd60e51b8152602060048201526013602482015272105b1c9958591e48125b9a5d1a585b1a5e9959606a1b60448201526064016107e6565b6110218484611a23565b601180546001600160a01b039283166001600160a01b031991821617909155600f8054939092169216919091179055505060016003819055601055565b600061106982610a18565b6000838152600960205260409020546106d09190612340565b600c54600f546040516370a0823160e01b8152306004820152600092916001600160a01b0316906370a0823190602401602060405180830381865afa1580156110cf573d6000803e3d6000fd5b505050506040513d601f19601f820116820180604052508101906110f391906123bb565b6110fd9190612329565b905080600c60008282546111119190612340565b90915550506011546000906001600160a01b03166111305760006111b4565b600d54601160009054906101000a90046001600160a01b03166001600160a01b031663192366376040518163ffffffff1660e01b8152600401602060405180830381865afa158015611186573d6000803e3d6000fd5b505050506040513d601f19601f820116820180604052508101906111aa91906123bb565b6111b49190612329565b905080600d60008282546111c89190612340565b90915550600090506111da8284612340565b601254909150600090612710906111f59061ffff16846122e8565b6111ff9190612307565b905080601360008282546112139190612340565b9091555050600b546112258284612329565b611234906402540be4006122e8565b61123e9190612307565b600a600082825461124f9190612340565b909155505050505050565b600180546106e3906121f4565b3360008181526007602090815260408083206001600160a01b03871680855290835292819020805460ff191686151590811790915590519081529192917f17307eab39ab6107e8899845ad3d59bd9653f200f220920489ca2b5937696c31910160405180910390a35050565b61130e6040518060a001604052806060815260200160006001600160a01b031681526020016000815260200160008152602001600081525090565b6040518060a0016040528060008054611326906121f4565b80601f0160208091040260200160405190810160405280929190818152602001828054611352906121f4565b801561139f5780601f106113745761010080835404028352916020019161139f565b820191906000526020600020905b81548152906001019060200180831161138257829003601f168201915b50505091835250503060208201526040016113b98461105e565b815260200183815260200160008152509050919050565b610a1481836115c2565b600f5460125460135460405163a9059cbb60e01b81526001600160a01b0364010000000090930483166004820152602481019190915291169063a9059cbb906044016020604051808303816000875af115801561143b573d6000803e3d6000fd5b505050506040513d601f19601f8201168201806040525081019061145f9190612358565b50565b6000818152600560205260409020546001600160a01b0316611482611a4a565b6001600160a01b03161461149557600080fd5b600b54156114a5576114a5611082565b600081815260096020526040812080548492906114c3908490612340565b9091555050600a546114d590836122e8565b600082815260096020526040812060010180549091906114f6908490612340565b9250508190555081600b600082825461150f9190612340565b9250508190555081600c60008282546115289190612340565b9091555050600f546001600160a01b03166323b872dd611546611a4a565b6040516001600160e01b031960e084901b1681526001600160a01b039091166004820152306024820152604481018590526064016020604051808303816000875af1158015611599573d6000803e3d6000fd5b505050506040513d601f19601f820116820180604052508101906115bd9190612358565b505050565b6115ca611082565b6000818152600560205260409020546001600160a01b03166115ea611a4a565b6001600160a01b031614801561160857506116048161105e565b8211155b61161157600080fd5b600f546040516370a0823160e01b81523060048201526000916001600160a01b0316906370a0823190602401602060405180830381865afa15801561165a573d6000803e3d6000fd5b505050506040513d601f19601f8201168201806040525081019061167e91906123bb565b905060008061168c84610a18565b905080851115611714576116a08186612329565b6000858152600960205260408120805492945084929091906116c3908490612329565b9250508190555081600b60008282546116dc9190612329565b9091555050600a546000858152600960205260409020546116fd91906122e8565b60008581526009602052604090206001015561174a565b611723856402540be4006122e8565b60008581526009602052604081206001018054909190611744908490612340565b90915550505b600083861161175a576000611764565b6117648487612329565b9050801561178d5761177581611aa9565b82600e60008282546117879190612329565b90915550505b600f546001600160a01b031663a9059cbb6117a6611a4a565b6040516001600160e01b031960e084901b1681526001600160a01b039091166004820152602481018990526044016020604051808303816000875af11580156117f3573d6000803e3d6000fd5b505050506040513d601f19601f820116820180604052508101906118179190612358565b50505050505050565b6000818152600560205260409020546001600160a01b0316806118725760405162461bcd60e51b815260206004820152600a6024820152691393d517d3525395115160b21b60448201526064016107e6565b6001600160a01b038116600081815260046020908152604080832080546000190190558583526005825280832080546001600160a01b031990811690915560069092528083208054909216909155518492907fddf252ad1be2c89b69c2b068fc378daa952ba7f163c4a11628f55a4df523b3ef908390a45050565b6000806119036118fb611a4a565b600354611b21565b600b549091501561191657611916611082565b6000818152600960205260409020839055600a5461193490846122e8565b60008281526009602052604081206001018054909190611955908490612340565b9250508190555082600b600082825461196e9190612340565b9250508190555082600c60008282546119879190612340565b9091555050600f546001600160a01b03166323b872dd6119a5611a4a565b6040516001600160e01b031960e084901b1681526001600160a01b039091166004820152306024820152604481018690526064016020604051808303816000875af11580156119f8573d6000803e3d6000fd5b505050506040513d601f19601f82011682018060405250810190611a1c9190612358565b5092915050565b8051611a36906001906020840190611c3c565b5081516115bd906000906020850190611c3c565b600033301415611aa157600080368080601f0160208091040260200160405190810160405280939291908181526020018383808284376000920191909152505050503601516001600160a01b03169150611aa69050565b503390565b90565b601154604051632e1a7d4d60e01b8152600481018390526001600160a01b0390911690632e1a7d4d90602401600060405180830381600087803b158015611aef57600080fd5b505af1158015611b03573d6000803e3d6000fd5b5050505080600d6000828254611b199190612329565b909155505050565b60006001600160a01b038316611b6d5760405162461bcd60e51b81526020600482015260116024820152701253959053125117d49150d25412515395607a1b60448201526064016107e6565b6000828152600560205260409020546001600160a01b031615611bc35760405162461bcd60e51b815260206004820152600e60248201526d1053149150511657d3525395115160921b60448201526064016107e6565b6001600160a01b038316600081815260046020908152604080832080546001908101909155600380549091019055858352600590915280822080546001600160a01b0319168417905551849291907fddf252ad1be2c89b69c2b068fc378daa952ba7f163c4a11628f55a4df523b3ef908290a450919050565b828054611c48906121f4565b90600052602060002090601f016020900481019282611c6a5760008555611cb0565b82601f10611c8357805160ff1916838001178555611cb0565b82800160010185558215611cb0579182015b82811115611cb0578251825591602001919060010190611c95565b50611cbc929150611cc0565b5090565b5b80821115611cbc5760008155600101611cc1565b600060208284031215611ce757600080fd5b81356001600160e01b031981168114610a7757600080fd5b60005b83811015611d1a578181015183820152602001611d02565b83811115611d29576000848401525b50505050565b60008151808452611d47816020860160208601611cff565b601f01601f19169290920160200192915050565b602081526000610a776020830184611d2f565b600060208284031215611d8057600080fd5b5035919050565b80356001600160a01b0381168114611d9e57600080fd5b919050565b60008060408385031215611db657600080fd5b611dbf83611d87565b946020939093013593505050565b634e487b7160e01b600052604160045260246000fd5b600082601f830112611df457600080fd5b813567ffffffffffffffff80821115611e0f57611e0f611dcd565b604051601f8301601f19908116603f01168101908282118183101715611e3757611e37611dcd565b81604052838152866020858801011115611e5057600080fd5b836020870160208301376000602085830101528094505050505092915050565b803560ff81168114611d9e57600080fd5b600080600080600060a08688031215611e9957600080fd5b611ea286611d87565b9450602086013567ffffffffffffffff811115611ebe57600080fd5b611eca88828901611de3565b9450506040860135925060608601359150611ee760808701611e70565b90509295509295909350565b60008060408385031215611f0657600080fd5b50508035926020909101359150565b600080600060608486031215611f2a57600080fd5b611f3384611d87565b9250611f4160208501611d87565b9150604084013590509250925092565b600060208284031215611f6357600080fd5b610a7782611d87565b60008060008060008060c08789031215611f8557600080fd5b863567ffffffffffffffff80821115611f9d57600080fd5b611fa98a838b01611de3565b97506020890135915080821115611fbf57600080fd5b50611fcc89828a01611de3565b955050611fdb60408801611d87565b9350611fe960608801611d87565b9250608087013561ffff8116811461200057600080fd5b915061200e60a08801611d87565b90509295509295509295565b600080600080600080600060e0888a03121561203557600080fd5b61203e88611d87565b96506020880135955060408801359450606088013567ffffffffffffffff81111561206857600080fd5b6120748a828b01611de3565b9450506080880135925060a0880135915061209160c08901611e70565b905092959891949750929550565b600080600080608085870312156120b557600080fd5b843567ffffffffffffffff808211156120cd57600080fd5b6120d988838901611de3565b955060208701359150808211156120ef57600080fd5b506120fc87828801611de3565b93505061210b60408601611d87565b915061211960608601611d87565b905092959194509250565b801515811461145f57600080fd5b6000806040838503121561214557600080fd5b61214e83611d87565b9150602083013561215e81612124565b809150509250929050565b602081526000825160a0602084015261218560c0840182611d2f565b905060018060a01b0360208501511660408401526040840151606084015260608401516080840152608084015160a08401528091505092915050565b600080604083850312156121d457600080fd5b6121dd83611d87565b91506121eb60208401611d87565b90509250929050565b600181811c9082168061220857607f821691505b6020821081141561222957634e487b7160e01b600052602260045260246000fd5b50919050565b634e487b7160e01b600052601160045260246000fd5b60006000198214156122595761225961222f565b5060010190565b60008351612272818460208801611cff565b60609390931b6bffffffffffffffffffffffff19169190920190815260140192915050565b600082516122a9818460208701611cff565b9190910192915050565b6001600160a01b038481168252831660208201526060604082018190526000906122df90830184611d2f565b95945050505050565b60008160001904831182151516156123025761230261222f565b500290565b60008261232457634e487b7160e01b600052601260045260246000fd5b500490565b60008282101561233b5761233b61222f565b500390565b600082198211156123535761235361222f565b500190565b60006020828403121561236a57600080fd5b8151610a7781612124565b8481526bffffffffffffffffffffffff198460601b166020820152826034820152600082516123ab816054850160208701611cff565b9190910160540195945050505050565b6000602082840312156123cd57600080fd5b505191905056fea26469706673582212206e9848c3ba1defb13a1cee0d154508f99e377f9d50c7eca1a1cea494361d777a64736f6c634300080b0033",
    "linkReferences": {}
  }
}