{
  "abi": [
    {
      "type": "function",
      "name": "approve",
      "inputs": [
        {
          "internalType": "address",
          "name": "spender",
          "type": "address"
        },
        {
          "internalType": "uint256",
          "name": "id",
          "type": "uint256"
        }
      ],
      "outputs": [],
      "stateMutability": "nonpayable"
    },
    {
      "type": "function",
      "name": "balanceOf",
      "inputs": [
        {
          "internalType": "address",
          "name": "",
          "type": "address"
        }
      ],
      "outputs": [
        {
          "internalType": "uint256",
          "name": "",
          "type": "uint256"
        }
      ],
      "stateMutability": "view"
    },
    {
      "type": "function",
      "name": "baseInit",
      "inputs": [
        {
          "internalType": "string",
          "name": "_name",
          "type": "string"
        },
        {
          "internalType": "string",
          "name": "_symbol",
          "type": "string"
        },
        {
          "internalType": "address",
          "name": "_token",
          "type": "address"
        },
        {
          "internalType": "address",
          "name": "strategy",
          "type": "address"
        }
      ],
      "outputs": [],
      "stateMutability": "nonpayable"
    },
    {
      "type": "function",
      "name": "burnNFTAndWithdraw",
      "inputs": [
        {
          "internalType": "uint256",
          "name": "id",
          "type": "uint256"
        }
      ],
      "outputs": [],
      "stateMutability": "nonpayable"
    },
    {
      "type": "function",
      "name": "currentId",
      "inputs": [],
      "outputs": [
        {
          "internalType": "uint256",
          "name": "",
          "type": "uint256"
        }
      ],
      "stateMutability": "view"
    },
    {
      "type": "function",
      "name": "depositToId",
      "inputs": [
        {
          "internalType": "uint256",
          "name": "amount",
          "type": "uint256"
        },
        {
          "internalType": "uint256",
          "name": "id",
          "type": "uint256"
        }
      ],
      "outputs": [],
      "stateMutability": "nonpayable"
    },
    {
      "type": "function",
      "name": "deposits",
      "inputs": [
        {
          "internalType": "uint256",
          "name": "",
          "type": "uint256"
        }
      ],
      "outputs": [
        {
          "internalType": "uint256",
          "name": "amount",
          "type": "uint256"
        },
        {
          "internalType": "uint256",
          "name": "tracker",
          "type": "uint256"
        }
      ],
      "stateMutability": "view"
    },
    {
      "type": "function",
      "name": "distributeYield",
      "inputs": [],
      "outputs": [],
      "stateMutability": "nonpayable"
    },
    {
      "type": "function",
      "name": "executeMetaTransaction",
      "inputs": [
        {
          "internalType": "address",
          "name": "userAddress",
          "type": "address"
        },
        {
          "internalType": "bytes",
          "name": "functionSignature",
          "type": "bytes"
        },
        {
          "internalType": "bytes32",
          "name": "sigR",
          "type": "bytes32"
        },
        {
          "internalType": "bytes32",
          "name": "sigS",
          "type": "bytes32"
        },
        {
          "internalType": "uint8",
          "name": "sigV",
          "type": "uint8"
        }
      ],
      "outputs": [
        {
          "internalType": "bytes",
          "name": "",
          "type": "bytes"
        }
      ],
      "stateMutability": "payable"
    },
    {
      "type": "function",
      "name": "getApproved",
      "inputs": [
        {
          "internalType": "uint256",
          "name": "",
          "type": "uint256"
        }
      ],
      "outputs": [
        {
          "internalType": "address",
          "name": "",
          "type": "address"
        }
      ],
      "stateMutability": "view"
    },
    {
      "type": "function",
      "name": "getChainID",
      "inputs": [],
      "outputs": [
        {
          "internalType": "uint256",
          "name": "",
          "type": "uint256"
        }
      ],
      "stateMutability": "view"
    },
    {
      "type": "function",
      "name": "getNonce",
      "inputs": [
        {
          "internalType": "address",
          "name": "user",
          "type": "address"
        }
      ],
      "outputs": [
        {
          "internalType": "uint256",
          "name": "nonce",
          "type": "uint256"
        }
      ],
      "stateMutability": "view"
    },
    {
      "type": "function",
      "name": "initStrat",
      "inputs": [],
      "outputs": [],
      "stateMutability": "nonpayable"
    },
    {
      "type": "function",
      "name": "isApprovedForAll",
      "inputs": [
        {
          "internalType": "address",
          "name": "",
          "type": "address"
        },
        {
          "internalType": "address",
          "name": "",
          "type": "address"
        }
      ],
      "outputs": [
        {
          "internalType": "bool",
          "name": "",
          "type": "bool"
        }
      ],
      "stateMutability": "view"
    },
    {
      "type": "function",
      "name": "mintNewNft",
      "inputs": [
        {
          "internalType": "uint256",
          "name": "amount",
          "type": "uint256"
        }
      ],
      "outputs": [
        {
          "internalType": "uint256",
          "name": "",
          "type": "uint256"
        }
      ],
      "stateMutability": "nonpayable"
    },
    {
      "type": "function",
      "name": "name",
      "inputs": [],
      "outputs": [
        {
          "internalType": "string",
          "name": "",
          "type": "string"
        }
      ],
      "stateMutability": "view"
    },
    {
      "type": "function",
      "name": "ownerOf",
      "inputs": [
        {
          "internalType": "uint256",
          "name": "",
          "type": "uint256"
        }
      ],
      "outputs": [
        {
          "internalType": "address",
          "name": "",
          "type": "address"
        }
      ],
      "stateMutability": "view"
    },
    {
      "type": "function",
      "name": "setApprovalForAll",
      "inputs": [
        {
          "internalType": "address",
          "name": "operator",
          "type": "address"
        },
        {
          "internalType": "bool",
          "name": "approved",
          "type": "bool"
        }
      ],
      "outputs": [],
      "stateMutability": "nonpayable"
    },
    {
      "type": "function",
      "name": "strat",
      "inputs": [],
      "outputs": [
        {
          "internalType": "contract IStrategy",
          "name": "",
          "type": "address"
        }
      ],
      "stateMutability": "view"
    },
    {
      "type": "function",
      "name": "supportsInterface",
      "inputs": [
        {
          "internalType": "bytes4",
          "name": "interfaceId",
          "type": "bytes4"
        }
      ],
      "outputs": [
        {
          "internalType": "bool",
          "name": "",
          "type": "bool"
        }
      ],
      "stateMutability": "pure"
    },
    {
      "type": "function",
      "name": "symbol",
      "inputs": [],
      "outputs": [
        {
          "internalType": "string",
          "name": "",
          "type": "string"
        }
      ],
      "stateMutability": "view"
    },
    {
      "type": "function",
      "name": "tokenURI",
      "inputs": [
        {
          "internalType": "uint256",
          "name": "id",
          "type": "uint256"
        }
      ],
      "outputs": [
        {
          "internalType": "struct BaseVault.MetaData",
          "name": "",
          "type": "tuple",
          "components": [
            {
              "type": "string"
            },
            {
              "type": "address"
            },
            {
              "type": "uint256"
            },
            {
              "type": "uint256"
            },
            {
              "type": "uint256"
            }
          ]
        }
      ],
      "stateMutability": "view"
    },
    {
      "type": "function",
      "name": "totalDeposits",
      "inputs": [],
      "outputs": [
        {
          "internalType": "uint256",
          "name": "",
          "type": "uint256"
        }
      ],
      "stateMutability": "view"
    },
    {
      "type": "function",
      "name": "transferFrom",
      "inputs": [
        {
          "internalType": "address",
          "name": "from",
          "type": "address"
        },
        {
          "internalType": "address",
          "name": "to",
          "type": "address"
        },
        {
          "internalType": "uint256",
          "name": "id",
          "type": "uint256"
        }
      ],
      "outputs": [],
      "stateMutability": "nonpayable"
    },
    {
      "type": "function",
      "name": "vaultToken",
      "inputs": [],
      "outputs": [
        {
          "internalType": "contract ERC20",
          "name": "",
          "type": "address"
        }
      ],
      "stateMutability": "view"
    },
    {
      "type": "function",
      "name": "verify",
      "inputs": [
        {
          "internalType": "address",
          "name": "owner",
          "type": "address"
        },
        {
          "internalType": "uint256",
          "name": "nonce",
          "type": "uint256"
        },
        {
          "internalType": "uint256",
          "name": "chainID",
          "type": "uint256"
        },
        {
          "internalType": "bytes",
          "name": "functionSignature",
          "type": "bytes"
        },
        {
          "internalType": "bytes32",
          "name": "sigR",
          "type": "bytes32"
        },
        {
          "internalType": "bytes32",
          "name": "sigS",
          "type": "bytes32"
        },
        {
          "internalType": "uint8",
          "name": "sigV",
          "type": "uint8"
        }
      ],
      "outputs": [
        {
          "internalType": "bool",
          "name": "",
          "type": "bool"
        }
      ],
      "stateMutability": "view"
    },
    {
      "type": "function",
      "name": "withdrawFromId",
      "inputs": [
        {
          "internalType": "uint256",
          "name": "id",
          "type": "uint256"
        },
        {
          "internalType": "uint256",
          "name": "amount",
          "type": "uint256"
        }
      ],
      "outputs": [],
      "stateMutability": "nonpayable"
    },
    {
      "type": "function",
      "name": "withdrawableById",
      "inputs": [
        {
          "internalType": "uint256",
          "name": "id",
          "type": "uint256"
        }
      ],
      "outputs": [
        {
          "internalType": "uint256",
          "name": "claimId",
          "type": "uint256"
        }
      ],
      "stateMutability": "view"
    },
    {
      "type": "function",
      "name": "yieldPerDeposit",
      "inputs": [],
      "outputs": [
        {
          "internalType": "uint256",
          "name": "",
          "type": "uint256"
        }
      ],
      "stateMutability": "view"
    },
    {
      "type": "function",
      "name": "yieldPerId",
      "inputs": [
        {
          "internalType": "uint256",
          "name": "id",
          "type": "uint256"
        }
      ],
      "outputs": [
        {
          "internalType": "uint256",
          "name": "",
          "type": "uint256"
        }
      ],
      "stateMutability": "view"
    },
    {
      "type": "event",
      "name": "Approval",
      "inputs": [
        {
          "name": "owner",
          "type": "address",
          "indexed": true
        },
        {
          "name": "spender",
          "type": "address",
          "indexed": true
        },
        {
          "name": "id",
          "type": "uint256",
          "indexed": true
        }
      ],
      "anonymous": false
    },
    {
      "type": "event",
      "name": "ApprovalForAll",
      "inputs": [
        {
          "name": "owner",
          "type": "address",
          "indexed": true
        },
        {
          "name": "operator",
          "type": "address",
          "indexed": true
        },
        {
          "name": "approved",
          "type": "bool",
          "indexed": false
        }
      ],
      "anonymous": false
    },
    {
      "type": "event",
      "name": "MetaTransactionExecuted",
      "inputs": [
        {
          "name": "userAddress",
          "type": "address",
          "indexed": false
        },
        {
          "name": "relayerAddress",
          "type": "address",
          "indexed": false
        },
        {
          "name": "functionSignature",
          "type": "bytes",
          "indexed": false
        }
      ],
      "anonymous": false
    },
    {
      "type": "event",
      "name": "Transfer",
      "inputs": [
        {
          "name": "from",
          "type": "address",
          "indexed": true
        },
        {
          "name": "to",
          "type": "address",
          "indexed": true
        },
        {
          "name": "id",
          "type": "uint256",
          "indexed": true
        }
      ],
      "anonymous": false
    }
  ],
  "bytecode": {
    "object": "0x6080604052600160035534801561001557600080fd5b506121a3806100256000396000f3fe6080604052600436106101cd5760003560e01c80636352211e116100f757806395d89b4111610095578063e00dd16111610064578063e00dd16114610591578063e985e9c5146105a7578063eaaf1fca146105e2578063f60fabe51461060257600080fd5b806395d89b41146104e6578063a22cb465146104fb578063b02c43d01461051b578063c87b56dd1461056457600080fd5b8063703bafd5116100d1578063703bafd51461046e57806370a082311461048e5780637d882097146104bb5780638a570a12146104d157600080fd5b80636352211e146103f85780636c9980e11461042e5780636d43d9f11461044e57600080fd5b80631ab2f6af1161016f57806340229cbb1161013e57806340229cbb146103855780634b6d69d3146103a5578063564b81ef146103c55780636281133d146103d857600080fd5b80631ab2f6af146102ec57806323b872dd1461031a5780632d0335ab1461033a57806334d894c91461037057600080fd5b8063081812fc116101ab578063081812fc14610261578063095ea7b3146102975780630c53c51c146102b9578063159b4962146102cc57600080fd5b806301ffc9a7146101d2578063059b2a101461020757806306fdde031461023f575b600080fd5b3480156101de57600080fd5b506101f26101ed366004611b19565b610618565b60405190151581526020015b60405180910390f35b34801561021357600080fd5b50601154610227906001600160a01b031681565b6040516001600160a01b0390911681526020016101fe565b34801561024b57600080fd5b5061025461066a565b6040516101fe9190611b9f565b34801561026d57600080fd5b5061022761027c366004611bb2565b6006602052600090815260409020546001600160a01b031681565b3480156102a357600080fd5b506102b76102b2366004611be7565b6106f8565b005b6102546102c7366004611cc5565b6107df565b3480156102d857600080fd5b506102b76102e7366004611d37565b61099e565b3480156102f857600080fd5b5061030c610307366004611bb2565b6109ac565b6040519081526020016101fe565b34801561032657600080fd5b506102b7610335366004611d59565b610a12565b34801561034657600080fd5b5061030c610355366004611d95565b6001600160a01b031660009081526008602052604090205490565b34801561037c57600080fd5b506102b7610bd9565b34801561039157600080fd5b506102b76103a0366004611bb2565b610d77565b3480156103b157600080fd5b5061030c6103c0366004611bb2565b610d97565b3480156103d157600080fd5b504661030c565b3480156103e457600080fd5b506101f26103f3366004611db0565b610da2565b34801561040457600080fd5b50610227610413366004611bb2565b6005602052600090815260409020546001600160a01b031681565b34801561043a57600080fd5b506102b7610449366004611e35565b610eea565b34801561045a57600080fd5b5061030c610469366004611bb2565b610f77565b34801561047a57600080fd5b50600f54610227906001600160a01b031681565b34801561049a57600080fd5b5061030c6104a9366004611d95565b60046020526000908152604090205481565b3480156104c757600080fd5b5061030c600b5481565b3480156104dd57600080fd5b506102b7610f9b565b3480156104f257600080fd5b50610254611126565b34801561050757600080fd5b506102b7610516366004611ecb565b611133565b34801561052757600080fd5b5061054f610536366004611bb2565b6009602052600090815260409020805460019091015482565b604080519283526020830191909152016101fe565b34801561057057600080fd5b5061058461057f366004611bb2565b61119f565b6040516101fe9190611f02565b34801561059d57600080fd5b5061030c60035481565b3480156105b357600080fd5b506101f26105c2366004611f5a565b600760209081526000928352604080842090915290825290205460ff1681565b3480156105ee57600080fd5b506102b76105fd366004611d37565b61129c565b34801561060e57600080fd5b5061030c600a5481565b60006301ffc9a760e01b6001600160e01b03198316148061064957506380ac58cd60e01b6001600160e01b03198316145b806106645750635b5e139f60e01b6001600160e01b03198316145b92915050565b6000805461067790611f8d565b80601f01602080910402602001604051908101604052809291908181526020018280546106a390611f8d565b80156106f05780601f106106c5576101008083540402835291602001916106f0565b820191906000526020600020905b8154815290600101906020018083116106d357829003601f168201915b505050505081565b6000818152600560205260409020546001600160a01b03163381148061074157506001600160a01b038116600090815260076020908152604080832033845290915290205460ff165b6107835760405162461bcd60e51b815260206004820152600e60248201526d1393d517d055551213d49256915160921b60448201526064015b60405180910390fd5b60008281526006602052604080822080546001600160a01b0319166001600160a01b0387811691821790925591518593918516917f8c5be1e5ebec7d5bd14f71427d1e84f3dd0314c0f7b2291e5b200ac8c7c3b92591a4505050565b6001600160a01b03851660009081526008602052604090205460609061080b9087904688888888610da2565b6108615760405162461bcd60e51b815260206004820152602160248201527f5369676e657220616e64207369676e617475726520646f206e6f74206d6174636044820152600d60fb1b606482015260840161077a565b6001600160a01b038616600090815260086020526040812080549161088583611fde565b9190505550600080306001600160a01b031687896040516020016108aa929190611ff9565b60408051601f19818403018152908290526108c491612030565b6000604051808303816000865af19150503d8060008114610901576040519150601f19603f3d011682016040523d82523d6000602084013e610906565b606091505b5091509150816109585760405162461bcd60e51b815260206004820152601c60248201527f46756e6374696f6e2063616c6c206e6f74207375636365737366756c00000000604482015260640161077a565b7f5845892132946850460bff5a0083f71031bc5bf9aadcd40f1de79423eac9b10b88338960405161098b9392919061204c565b60405180910390a1979650505050505050565b6109a882826112a6565b5050565b600a54600082815260096020526040812054909182916402540be400916109d291612081565b6109dc91906120a0565b600084815260096020526040902060010154909150610a01906402540be400906120a0565b610a0b90826120c2565b9392505050565b6000818152600560205260409020546001600160a01b03848116911614610a685760405162461bcd60e51b815260206004820152600a60248201526957524f4e475f46524f4d60b01b604482015260640161077a565b6001600160a01b038216610ab25760405162461bcd60e51b81526020600482015260116024820152701253959053125117d49150d25412515395607a1b604482015260640161077a565b336001600160a01b0384161480610adf57506000818152600660205260409020546001600160a01b031633145b80610b0d57506001600160a01b038316600090815260076020908152604080832033845290915290205460ff165b610b4a5760405162461bcd60e51b815260206004820152600e60248201526d1393d517d055551213d49256915160921b604482015260640161077a565b6001600160a01b0380841660008181526004602090815260408083208054600019019055938616808352848320805460010190558583526005825284832080546001600160a01b03199081168317909155600690925284832080549092169091559251849392917fddf252ad1be2c89b69c2b068fc378daa952ba7f163c4a11628f55a4df523b3ef91a4505050565b6011546001600160a01b0316610c1f5760405162461bcd60e51b815260206004820152600b60248201526a4e6f20537472617465677960a81b604482015260640161077a565b6000612710600b54611388610c349190612081565b610c3e91906120a0565b90506000600e5482610c5091906120c2565b905080600e6000828254610c6491906120d9565b9250508190555080600d6000828254610c7d91906120d9565b9250508190555080600c6000828254610c9691906120c2565b9091555050600f5460115460405163095ea7b360e01b81526001600160a01b0391821660048201526024810184905291169063095ea7b3906044016020604051808303816000875af1158015610cf0573d6000803e3d6000fd5b505050506040513d601f19601f82011682018060405250810190610d1491906120f1565b5060115460405163b6b55f2560e01b8152600481018390526001600160a01b039091169063b6b55f2590602401600060405180830381600087803b158015610d5b57600080fd5b505af1158015610d6f573d6000803e3d6000fd5b505050505050565b6000610d8282610f77565b9050610d8e8183611406565b6109a882611664565b600061066482611731565b600080610e1f88308989604051602001610dbf949392919061210e565b60408051601f1981840301815282825280516020918201207f19457468657265756d205369676e6564204d6573736167653a0a33320000000084830152603c8085019190915282518085039091018152605c909301909152815191012090565b6040805160008082526020820180845284905260ff87169282019290925260608101889052608081018790529192509060019060a0016020604051602081039080840390855afa158015610e77573d6000803e3d6000fd5b5050604051601f1901519150506001600160a01b038116610ece5760405162461bcd60e51b8152602060048201526011602482015270496e76616c6964207369676e617475726560781b604482015260640161077a565b6001600160a01b038a8116911614915050979650505050505050565b60105415610f305760405162461bcd60e51b8152602060048201526013602482015272105b1c9958591e48125b9a5d1a585b1a5e9959606a1b604482015260640161077a565b610f3a8484611867565b601180546001600160a01b039283166001600160a01b031991821617909155600f8054939092169216919091179055505060016003819055601055565b6000610f82826109ac565b60008381526009602052604090205461066491906120d9565b600c54600f546040516370a0823160e01b8152306004820152600092916001600160a01b0316906370a0823190602401602060405180830381865afa158015610fe8573d6000803e3d6000fd5b505050506040513d601f19601f8201168201806040525081019061100c9190612154565b61101691906120c2565b905080600c600082825461102a91906120d9565b90915550506011546000906001600160a01b03166110495760006110cd565b600d54601160009054906101000a90046001600160a01b03166001600160a01b031663192366376040518163ffffffff1660e01b8152600401602060405180830381865afa15801561109f573d6000803e3d6000fd5b505050506040513d601f19601f820116820180604052508101906110c39190612154565b6110cd91906120c2565b905080600d60008282546110e191906120d9565b9091555050600b546110f382846120d9565b611102906402540be400612081565b61110c91906120a0565b600a600082825461111d91906120d9565b90915550505050565b6001805461067790611f8d565b3360008181526007602090815260408083206001600160a01b03871680855290835292819020805460ff191686151590811790915590519081529192917f17307eab39ab6107e8899845ad3d59bd9653f200f220920489ca2b5937696c31910160405180910390a35050565b6111da6040518060a001604052806060815260200160006001600160a01b031681526020016000815260200160008152602001600081525090565b6040518060a00160405280600080546111f290611f8d565b80601f016020809104026020016040519081016040528092919081815260200182805461121e90611f8d565b801561126b5780601f106112405761010080835404028352916020019161126b565b820191906000526020600020905b81548152906001019060200180831161124e57829003601f168201915b505050918352505030602082015260400161128584610f77565b815260200183815260200160008152509050919050565b6109a88183611406565b6000818152600560205260409020546001600160a01b03166112c661188e565b6001600160a01b0316146112d957600080fd5b600b54156112e9576112e9610f9b565b600081815260096020526040812080548492906113079084906120d9565b9091555050600a546113199083612081565b6000828152600960205260408120600101805490919061133a9084906120d9565b9250508190555081600b600082825461135391906120d9565b9250508190555081600c600082825461136c91906120d9565b9091555050600f546001600160a01b03166323b872dd61138a61188e565b6040516001600160e01b031960e084901b1681526001600160a01b039091166004820152306024820152604481018590526064016020604051808303816000875af11580156113dd573d6000803e3d6000fd5b505050506040513d601f19601f8201168201806040525081019061140191906120f1565b505050565b61140e610f9b565b6000818152600560205260409020546001600160a01b031661142e61188e565b6001600160a01b031614801561144c575061144881610f77565b8211155b61145557600080fd5b600f546040516370a0823160e01b81523060048201526000916001600160a01b0316906370a0823190602401602060405180830381865afa15801561149e573d6000803e3d6000fd5b505050506040513d601f19601f820116820180604052508101906114c29190612154565b90506000806114d0846109ac565b905080851115611558576114e481866120c2565b6000858152600960205260408120805492945084929091906115079084906120c2565b9250508190555081600b600082825461152091906120c2565b9091555050600a546000858152600960205260409020546115419190612081565b60008581526009602052604090206001015561158e565b611567856402540be400612081565b600085815260096020526040812060010180549091906115889084906120d9565b90915550505b600083861161159e5760006115a8565b6115a884876120c2565b905080156115d1576115b9816118ed565b82600e60008282546115cb91906120c2565b90915550505b600f546001600160a01b031663a9059cbb6115ea61188e565b6040516001600160e01b031960e084901b1681526001600160a01b039091166004820152602481018990526044016020604051808303816000875af1158015611637573d6000803e3d6000fd5b505050506040513d601f19601f8201168201806040525081019061165b91906120f1565b50505050505050565b6000818152600560205260409020546001600160a01b0316806116b65760405162461bcd60e51b815260206004820152600a6024820152691393d517d3525395115160b21b604482015260640161077a565b6001600160a01b038116600081815260046020908152604080832080546000190190558583526005825280832080546001600160a01b031990811690915560069092528083208054909216909155518492907fddf252ad1be2c89b69c2b068fc378daa952ba7f163c4a11628f55a4df523b3ef908390a45050565b60008061174761173f61188e565b600354611965565b600b549091501561175a5761175a610f9b565b6000818152600960205260409020839055600a546117789084612081565b600082815260096020526040812060010180549091906117999084906120d9565b9250508190555082600b60008282546117b291906120d9565b9250508190555082600c60008282546117cb91906120d9565b9091555050600f546001600160a01b03166323b872dd6117e961188e565b6040516001600160e01b031960e084901b1681526001600160a01b039091166004820152306024820152604481018690526064016020604051808303816000875af115801561183c573d6000803e3d6000fd5b505050506040513d601f19601f8201168201806040525081019061186091906120f1565b5092915050565b805161187a906001906020840190611a80565b508151611401906000906020850190611a80565b6000333014156118e557600080368080601f0160208091040260200160405190810160405280939291908181526020018383808284376000920191909152505050503601516001600160a01b031691506118ea9050565b503390565b90565b601154604051632e1a7d4d60e01b8152600481018390526001600160a01b0390911690632e1a7d4d90602401600060405180830381600087803b15801561193357600080fd5b505af1158015611947573d6000803e3d6000fd5b5050505080600d600082825461195d91906120c2565b909155505050565b60006001600160a01b0383166119b15760405162461bcd60e51b81526020600482015260116024820152701253959053125117d49150d25412515395607a1b604482015260640161077a565b6000828152600560205260409020546001600160a01b031615611a075760405162461bcd60e51b815260206004820152600e60248201526d1053149150511657d3525395115160921b604482015260640161077a565b6001600160a01b038316600081815260046020908152604080832080546001908101909155600380549091019055858352600590915280822080546001600160a01b0319168417905551849291907fddf252ad1be2c89b69c2b068fc378daa952ba7f163c4a11628f55a4df523b3ef908290a450919050565b828054611a8c90611f8d565b90600052602060002090601f016020900481019282611aae5760008555611af4565b82601f10611ac757805160ff1916838001178555611af4565b82800160010185558215611af4579182015b82811115611af4578251825591602001919060010190611ad9565b50611b00929150611b04565b5090565b5b80821115611b005760008155600101611b05565b600060208284031215611b2b57600080fd5b81356001600160e01b031981168114610a0b57600080fd5b60005b83811015611b5e578181015183820152602001611b46565b83811115611b6d576000848401525b50505050565b60008151808452611b8b816020860160208601611b43565b601f01601f19169290920160200192915050565b602081526000610a0b6020830184611b73565b600060208284031215611bc457600080fd5b5035919050565b80356001600160a01b0381168114611be257600080fd5b919050565b60008060408385031215611bfa57600080fd5b611c0383611bcb565b946020939093013593505050565b634e487b7160e01b600052604160045260246000fd5b600082601f830112611c3857600080fd5b813567ffffffffffffffff80821115611c5357611c53611c11565b604051601f8301601f19908116603f01168101908282118183101715611c7b57611c7b611c11565b81604052838152866020858801011115611c9457600080fd5b836020870160208301376000602085830101528094505050505092915050565b803560ff81168114611be257600080fd5b600080600080600060a08688031215611cdd57600080fd5b611ce686611bcb565b9450602086013567ffffffffffffffff811115611d0257600080fd5b611d0e88828901611c27565b9450506040860135925060608601359150611d2b60808701611cb4565b90509295509295909350565b60008060408385031215611d4a57600080fd5b50508035926020909101359150565b600080600060608486031215611d6e57600080fd5b611d7784611bcb565b9250611d8560208501611bcb565b9150604084013590509250925092565b600060208284031215611da757600080fd5b610a0b82611bcb565b600080600080600080600060e0888a031215611dcb57600080fd5b611dd488611bcb565b96506020880135955060408801359450606088013567ffffffffffffffff811115611dfe57600080fd5b611e0a8a828b01611c27565b9450506080880135925060a08801359150611e2760c08901611cb4565b905092959891949750929550565b60008060008060808587031215611e4b57600080fd5b843567ffffffffffffffff80821115611e6357600080fd5b611e6f88838901611c27565b95506020870135915080821115611e8557600080fd5b50611e9287828801611c27565b935050611ea160408601611bcb565b9150611eaf60608601611bcb565b905092959194509250565b8015158114611ec857600080fd5b50565b60008060408385031215611ede57600080fd5b611ee783611bcb565b91506020830135611ef781611eba565b809150509250929050565b602081526000825160a06020840152611f1e60c0840182611b73565b905060018060a01b0360208501511660408401526040840151606084015260608401516080840152608084015160a08401528091505092915050565b60008060408385031215611f6d57600080fd5b611f7683611bcb565b9150611f8460208401611bcb565b90509250929050565b600181811c90821680611fa157607f821691505b60208210811415611fc257634e487b7160e01b600052602260045260246000fd5b50919050565b634e487b7160e01b600052601160045260246000fd5b6000600019821415611ff257611ff2611fc8565b5060010190565b6000835161200b818460208801611b43565b60609390931b6bffffffffffffffffffffffff19169190920190815260140192915050565b60008251612042818460208701611b43565b9190910192915050565b6001600160a01b0384811682528316602082015260606040820181905260009061207890830184611b73565b95945050505050565b600081600019048311821515161561209b5761209b611fc8565b500290565b6000826120bd57634e487b7160e01b600052601260045260246000fd5b500490565b6000828210156120d4576120d4611fc8565b500390565b600082198211156120ec576120ec611fc8565b500190565b60006020828403121561210357600080fd5b8151610a0b81611eba565b8481526bffffffffffffffffffffffff198460601b16602082015282603482015260008251612144816054850160208701611b43565b9190910160540195945050505050565b60006020828403121561216657600080fd5b505191905056fea2646970667358221220200b8fa938ec12c370ed093147939692760811b9127edc9b1945dc6fa82f1c1064736f6c634300080b0033",
    "linkReferences": {}
  }
}