{
  "_format": "hh-sol-artifact-1",
  "contractName": "BasicMetaTransaction",
  "sourceName": "contracts/BasicMetaTransaction.sol",
  "abi": [
    {
      "anonymous": false,
      "inputs": [
        {
          "indexed": false,
          "internalType": "address",
          "name": "userAddress",
          "type": "address"
        },
        {
          "indexed": false,
          "internalType": "address payable",
          "name": "relayerAddress",
          "type": "address"
        },
        {
          "indexed": false,
          "internalType": "bytes",
          "name": "functionSignature",
          "type": "bytes"
        }
      ],
      "name": "MetaTransactionExecuted",
      "type": "event"
    },
    {
      "inputs": [
        {
          "internalType": "address",
          "name": "userAddress",
          "type": "address"
        },
        {
          "internalType": "bytes",
          "name": "functionSignature",
          "type": "bytes"
        },
        {
          "internalType": "bytes32",
          "name": "sigR",
          "type": "bytes32"
        },
        {
          "internalType": "bytes32",
          "name": "sigS",
          "type": "bytes32"
        },
        {
          "internalType": "uint8",
          "name": "sigV",
          "type": "uint8"
        }
      ],
      "name": "executeMetaTransaction",
      "outputs": [
        {
          "internalType": "bytes",
          "name": "",
          "type": "bytes"
        }
      ],
      "stateMutability": "payable",
      "type": "function"
    },
    {
      "inputs": [],
      "name": "getChainID",
      "outputs": [
        {
          "internalType": "uint256",
          "name": "",
          "type": "uint256"
        }
      ],
      "stateMutability": "view",
      "type": "function"
    },
    {
      "inputs": [
        {
          "internalType": "address",
          "name": "user",
          "type": "address"
        }
      ],
      "name": "getNonce",
      "outputs": [
        {
          "internalType": "uint256",
          "name": "nonce",
          "type": "uint256"
        }
      ],
      "stateMutability": "view",
      "type": "function"
    },
    {
      "inputs": [
        {
          "internalType": "address",
          "name": "owner",
          "type": "address"
        },
        {
          "internalType": "uint256",
          "name": "nonce",
          "type": "uint256"
        },
        {
          "internalType": "uint256",
          "name": "chainID",
          "type": "uint256"
        },
        {
          "internalType": "bytes",
          "name": "functionSignature",
          "type": "bytes"
        },
        {
          "internalType": "bytes32",
          "name": "sigR",
          "type": "bytes32"
        },
        {
          "internalType": "bytes32",
          "name": "sigS",
          "type": "bytes32"
        },
        {
          "internalType": "uint8",
          "name": "sigV",
          "type": "uint8"
        }
      ],
      "name": "verify",
      "outputs": [
        {
          "internalType": "bool",
          "name": "",
          "type": "bool"
        }
      ],
      "stateMutability": "view",
      "type": "function"
    }
  ],
  "bytecode": "0x608060405234801561001057600080fd5b50610778806100206000396000f3fe60806040526004361061003f5760003560e01c80630c53c51c146100445780632d0335ab1461006d578063564b81ef146100b15780636281133d146100c4575b600080fd5b6100576100523660046104d5565b6100f4565b60405161006491906106c2565b60405180910390f35b34801561007957600080fd5b506100a36100883660046104b4565b6001600160a01b031660009081526020819052604090205490565b604051908152602001610064565b3480156100bd57600080fd5b50466100a3565b3480156100d057600080fd5b506100e46100df366004610545565b6102b8565b6040519015158152602001610064565b6001600160a01b03851660009081526020819052604090205460609061012090879046888888886102b8565b61017b5760405162461bcd60e51b815260206004820152602160248201527f5369676e657220616e64207369676e617475726520646f206e6f74206d6174636044820152600d60fb1b60648201526084015b60405180910390fd5b6001600160a01b038616600090815260208190526040812080549161019f83610705565b9190505550600080306001600160a01b031687896040516020016101c4929190610610565b60408051601f19818403018152908290526101de916105f4565b6000604051808303816000865af19150503d806000811461021b576040519150601f19603f3d011682016040523d82523d6000602084013e610220565b606091505b5091509150816102725760405162461bcd60e51b815260206004820152601c60248201527f46756e6374696f6e2063616c6c206e6f74207375636365737366756c000000006044820152606401610172565b7f5845892132946850460bff5a0083f71031bc5bf9aadcd40f1de79423eac9b10b8833896040516102a59392919061068d565b60405180910390a1979650505050505050565b600080610335883089896040516020016102d59493929190610647565b60408051601f1981840301815282825280516020918201207f19457468657265756d205369676e6564204d6573736167653a0a33320000000084830152603c8085019190915282518085039091018152605c909301909152815191012090565b6040805160008082526020820180845284905260ff87169282019290925260608101889052608081018790529192509060019060a0016020604051602081039080840390855afa15801561038d573d6000803e3d6000fd5b5050604051601f1901519150506001600160a01b0381166103e45760405162461bcd60e51b8152602060048201526011602482015270496e76616c6964207369676e617475726560781b6044820152606401610172565b6001600160a01b038a8116911614915050979650505050505050565b80356001600160a01b038116811461041757600080fd5b919050565b600082601f83011261042c578081fd5b813567ffffffffffffffff808211156104475761044761072c565b604051601f8301601f19908116603f0116810190828211818310171561046f5761046f61072c565b81604052838152866020858801011115610487578485fd5b8360208701602083013792830160200193909352509392505050565b803560ff8116811461041757600080fd5b6000602082840312156104c5578081fd5b6104ce82610400565b9392505050565b600080600080600060a086880312156104ec578081fd5b6104f586610400565b9450602086013567ffffffffffffffff811115610510578182fd5b61051c8882890161041c565b9450506040860135925060608601359150610539608087016104a3565b90509295509295909350565b600080600080600080600060e0888a03121561055f578182fd5b61056888610400565b96506020880135955060408801359450606088013567ffffffffffffffff811115610591578283fd5b61059d8a828b0161041c565b9450506080880135925060a088013591506105ba60c089016104a3565b905092959891949750929550565b600081518084526105e08160208601602086016106d5565b601f01601f19169290920160200192915050565b600082516106068184602087016106d5565b9190910192915050565b600083516106228184602088016106d5565b60609390931b6bffffffffffffffffffffffff19169190920190815260140192915050565b8481526bffffffffffffffffffffffff198460601b1660208201528260348201526000825161067d8160548501602087016106d5565b9190910160540195945050505050565b6001600160a01b038481168252831660208201526060604082018190526000906106b9908301846105c8565b95945050505050565b6020815260006104ce60208301846105c8565b60005b838110156106f05781810151838201526020016106d8565b838111156106ff576000848401525b50505050565b600060001982141561072557634e487b7160e01b81526011600452602481fd5b5060010190565b634e487b7160e01b600052604160045260246000fdfea264697066735822122011776543b649e13ffafb1bf4d7dc46e8172eaee350ee88930ac3a99594dd07e464736f6c63430008040033",
  "linkReferences": {},
  "deployedLinkReferences": {}
}