{
  "abi": [
    {
      "type": "function",
      "name": "approve",
      "inputs": [
        {
          "internalType": "address",
          "name": "spender",
          "type": "address"
        },
        {
          "internalType": "uint256",
          "name": "id",
          "type": "uint256"
        }
      ],
      "outputs": [],
      "stateMutability": "nonpayable"
    },
    {
      "type": "function",
      "name": "balanceOf",
      "inputs": [
        {
          "internalType": "address",
          "name": "",
          "type": "address"
        }
      ],
      "outputs": [
        {
          "internalType": "uint256",
          "name": "",
          "type": "uint256"
        }
      ],
      "stateMutability": "view"
    },
    {
      "type": "function",
      "name": "baseInit",
      "inputs": [
        {
          "internalType": "string",
          "name": "_name",
          "type": "string"
        },
        {
          "internalType": "string",
          "name": "_symbol",
          "type": "string"
        },
        {
          "internalType": "address",
          "name": "_token",
          "type": "address"
        },
        {
          "internalType": "address",
          "name": "strategy",
          "type": "address"
        }
      ],
      "outputs": [],
      "stateMutability": "nonpayable"
    },
    {
      "type": "function",
      "name": "burnNFTAndWithdraw",
      "inputs": [
        {
          "internalType": "uint256",
          "name": "id",
          "type": "uint256"
        }
      ],
      "outputs": [],
      "stateMutability": "nonpayable"
    },
    {
      "type": "function",
      "name": "claimJackpot",
      "inputs": [],
      "outputs": [],
      "stateMutability": "nonpayable"
    },
    {
      "type": "function",
      "name": "ctx",
      "inputs": [],
      "outputs": [
        {
          "internalType": "uint16",
          "name": "jackpotBP",
          "type": "uint16"
        },
        {
          "internalType": "uint16",
          "name": "dividendsBP",
          "type": "uint16"
        },
        {
          "internalType": "uint16",
          "name": "timeDecay",
          "type": "uint16"
        },
        {
          "internalType": "uint16",
          "name": "growthFactor",
          "type": "uint16"
        },
        {
          "internalType": "uint16",
          "name": "vaultType",
          "type": "uint16"
        }
      ],
      "stateMutability": "view"
    },
    {
      "type": "function",
      "name": "currentId",
      "inputs": [],
      "outputs": [
        {
          "internalType": "uint256",
          "name": "",
          "type": "uint256"
        }
      ],
      "stateMutability": "view"
    },
    {
      "type": "function",
      "name": "deadline",
      "inputs": [],
      "outputs": [
        {
          "internalType": "uint256",
          "name": "",
          "type": "uint256"
        }
      ],
      "stateMutability": "view"
    },
    {
      "type": "function",
      "name": "depositToId",
      "inputs": [
        {
          "internalType": "uint256",
          "name": "amount",
          "type": "uint256"
        },
        {
          "internalType": "uint256",
          "name": "id",
          "type": "uint256"
        }
      ],
      "outputs": [],
      "stateMutability": "nonpayable"
    },
    {
      "type": "function",
      "name": "deposits",
      "inputs": [
        {
          "internalType": "uint256",
          "name": "",
          "type": "uint256"
        }
      ],
      "outputs": [
        {
          "internalType": "uint256",
          "name": "amount",
          "type": "uint256"
        },
        {
          "internalType": "uint256",
          "name": "tracker",
          "type": "uint256"
        }
      ],
      "stateMutability": "view"
    },
    {
      "type": "function",
      "name": "distributeYield",
      "inputs": [],
      "outputs": [],
      "stateMutability": "nonpayable"
    },
    {
      "type": "function",
      "name": "executeMetaTransaction",
      "inputs": [
        {
          "internalType": "address",
          "name": "userAddress",
          "type": "address"
        },
        {
          "internalType": "bytes",
          "name": "functionSignature",
          "type": "bytes"
        },
        {
          "internalType": "bytes32",
          "name": "sigR",
          "type": "bytes32"
        },
        {
          "internalType": "bytes32",
          "name": "sigS",
          "type": "bytes32"
        },
        {
          "internalType": "uint8",
          "name": "sigV",
          "type": "uint8"
        }
      ],
      "outputs": [
        {
          "internalType": "bytes",
          "name": "",
          "type": "bytes"
        }
      ],
      "stateMutability": "payable"
    },
    {
      "type": "function",
      "name": "getApproved",
      "inputs": [
        {
          "internalType": "uint256",
          "name": "",
          "type": "uint256"
        }
      ],
      "outputs": [
        {
          "internalType": "address",
          "name": "",
          "type": "address"
        }
      ],
      "stateMutability": "view"
    },
    {
      "type": "function",
      "name": "getChainID",
      "inputs": [],
      "outputs": [
        {
          "internalType": "uint256",
          "name": "",
          "type": "uint256"
        }
      ],
      "stateMutability": "view"
    },
    {
      "type": "function",
      "name": "getNonce",
      "inputs": [
        {
          "internalType": "address",
          "name": "user",
          "type": "address"
        }
      ],
      "outputs": [
        {
          "internalType": "uint256",
          "name": "nonce",
          "type": "uint256"
        }
      ],
      "stateMutability": "view"
    },
    {
      "type": "function",
      "name": "init",
      "inputs": [
        {
          "internalType": "address",
          "name": "_vaultToken",
          "type": "address"
        },
        {
          "internalType": "address",
          "name": "_strategy",
          "type": "address"
        },
        {
          "internalType": "uint16",
          "name": "_jackpotBP",
          "type": "uint16"
        },
        {
          "internalType": "uint16",
          "name": "_dividendsBP",
          "type": "uint16"
        },
        {
          "internalType": "uint256",
          "name": "_minimumPrice",
          "type": "uint256"
        },
        {
          "internalType": "uint256",
          "name": "_intialTimeSeconds",
          "type": "uint256"
        },
        {
          "internalType": "uint16",
          "name": "_timeDecay",
          "type": "uint16"
        },
        {
          "internalType": "uint16",
          "name": "_growthFactor",
          "type": "uint16"
        },
        {
          "internalType": "string",
          "name": "_name",
          "type": "string"
        },
        {
          "internalType": "string",
          "name": "_symbol",
          "type": "string"
        }
      ],
      "outputs": [],
      "stateMutability": "nonpayable"
    },
    {
      "type": "function",
      "name": "initStrat",
      "inputs": [],
      "outputs": [],
      "stateMutability": "nonpayable"
    },
    {
      "type": "function",
      "name": "isApprovedForAll",
      "inputs": [
        {
          "internalType": "address",
          "name": "",
          "type": "address"
        },
        {
          "internalType": "address",
          "name": "",
          "type": "address"
        }
      ],
      "outputs": [
        {
          "internalType": "bool",
          "name": "",
          "type": "bool"
        }
      ],
      "stateMutability": "view"
    },
    {
      "type": "function",
      "name": "jackpot",
      "inputs": [],
      "outputs": [
        {
          "internalType": "uint256",
          "name": "",
          "type": "uint256"
        }
      ],
      "stateMutability": "view"
    },
    {
      "type": "function",
      "name": "lastDepositer",
      "inputs": [],
      "outputs": [
        {
          "internalType": "address",
          "name": "",
          "type": "address"
        }
      ],
      "stateMutability": "view"
    },
    {
      "type": "function",
      "name": "minimumPrice",
      "inputs": [],
      "outputs": [
        {
          "internalType": "uint256",
          "name": "",
          "type": "uint256"
        }
      ],
      "stateMutability": "view"
    },
    {
      "type": "function",
      "name": "mintNewNft",
      "inputs": [
        {
          "internalType": "uint256",
          "name": "amount",
          "type": "uint256"
        }
      ],
      "outputs": [
        {
          "internalType": "uint256",
          "name": "",
          "type": "uint256"
        }
      ],
      "stateMutability": "nonpayable"
    },
    {
      "type": "function",
      "name": "name",
      "inputs": [],
      "outputs": [
        {
          "internalType": "string",
          "name": "",
          "type": "string"
        }
      ],
      "stateMutability": "view"
    },
    {
      "type": "function",
      "name": "ownerOf",
      "inputs": [
        {
          "internalType": "uint256",
          "name": "",
          "type": "uint256"
        }
      ],
      "outputs": [
        {
          "internalType": "address",
          "name": "",
          "type": "address"
        }
      ],
      "stateMutability": "view"
    },
    {
      "type": "function",
      "name": "setApprovalForAll",
      "inputs": [
        {
          "internalType": "address",
          "name": "operator",
          "type": "address"
        },
        {
          "internalType": "bool",
          "name": "approved",
          "type": "bool"
        }
      ],
      "outputs": [],
      "stateMutability": "nonpayable"
    },
    {
      "type": "function",
      "name": "strat",
      "inputs": [],
      "outputs": [
        {
          "internalType": "contract IStrategy",
          "name": "",
          "type": "address"
        }
      ],
      "stateMutability": "view"
    },
    {
      "type": "function",
      "name": "supportsInterface",
      "inputs": [
        {
          "internalType": "bytes4",
          "name": "interfaceId",
          "type": "bytes4"
        }
      ],
      "outputs": [
        {
          "internalType": "bool",
          "name": "",
          "type": "bool"
        }
      ],
      "stateMutability": "pure"
    },
    {
      "type": "function",
      "name": "symbol",
      "inputs": [],
      "outputs": [
        {
          "internalType": "string",
          "name": "",
          "type": "string"
        }
      ],
      "stateMutability": "view"
    },
    {
      "type": "function",
      "name": "tokenURI",
      "inputs": [
        {
          "internalType": "uint256",
          "name": "id",
          "type": "uint256"
        }
      ],
      "outputs": [
        {
          "internalType": "struct BaseVault.MetaData",
          "name": "",
          "type": "tuple",
          "components": [
            {
              "type": "string"
            },
            {
              "type": "address"
            },
            {
              "type": "uint256"
            },
            {
              "type": "uint256"
            },
            {
              "type": "uint256"
            }
          ]
        }
      ],
      "stateMutability": "view"
    },
    {
      "type": "function",
      "name": "totalDeposits",
      "inputs": [],
      "outputs": [
        {
          "internalType": "uint256",
          "name": "",
          "type": "uint256"
        }
      ],
      "stateMutability": "view"
    },
    {
      "type": "function",
      "name": "transferFrom",
      "inputs": [
        {
          "internalType": "address",
          "name": "from",
          "type": "address"
        },
        {
          "internalType": "address",
          "name": "to",
          "type": "address"
        },
        {
          "internalType": "uint256",
          "name": "id",
          "type": "uint256"
        }
      ],
      "outputs": [],
      "stateMutability": "nonpayable"
    },
    {
      "type": "function",
      "name": "vaultToken",
      "inputs": [],
      "outputs": [
        {
          "internalType": "contract ERC20",
          "name": "",
          "type": "address"
        }
      ],
      "stateMutability": "view"
    },
    {
      "type": "function",
      "name": "verify",
      "inputs": [
        {
          "internalType": "address",
          "name": "owner",
          "type": "address"
        },
        {
          "internalType": "uint256",
          "name": "nonce",
          "type": "uint256"
        },
        {
          "internalType": "uint256",
          "name": "chainID",
          "type": "uint256"
        },
        {
          "internalType": "bytes",
          "name": "functionSignature",
          "type": "bytes"
        },
        {
          "internalType": "bytes32",
          "name": "sigR",
          "type": "bytes32"
        },
        {
          "internalType": "bytes32",
          "name": "sigS",
          "type": "bytes32"
        },
        {
          "internalType": "uint8",
          "name": "sigV",
          "type": "uint8"
        }
      ],
      "outputs": [
        {
          "internalType": "bool",
          "name": "",
          "type": "bool"
        }
      ],
      "stateMutability": "view"
    },
    {
      "type": "function",
      "name": "withdrawFromId",
      "inputs": [
        {
          "internalType": "uint256",
          "name": "amount",
          "type": "uint256"
        },
        {
          "internalType": "uint256",
          "name": "id",
          "type": "uint256"
        }
      ],
      "outputs": [],
      "stateMutability": "nonpayable"
    },
    {
      "type": "function",
      "name": "withdrawableById",
      "inputs": [
        {
          "internalType": "uint256",
          "name": "id",
          "type": "uint256"
        }
      ],
      "outputs": [
        {
          "internalType": "uint256",
          "name": "claimId",
          "type": "uint256"
        }
      ],
      "stateMutability": "view"
    },
    {
      "type": "function",
      "name": "yieldPerDeposit",
      "inputs": [],
      "outputs": [
        {
          "internalType": "uint256",
          "name": "",
          "type": "uint256"
        }
      ],
      "stateMutability": "view"
    },
    {
      "type": "function",
      "name": "yieldPerId",
      "inputs": [
        {
          "internalType": "uint256",
          "name": "id",
          "type": "uint256"
        }
      ],
      "outputs": [
        {
          "internalType": "uint256",
          "name": "",
          "type": "uint256"
        }
      ],
      "stateMutability": "view"
    },
    {
      "type": "event",
      "name": "Approval",
      "inputs": [
        {
          "name": "owner",
          "type": "address",
          "indexed": true
        },
        {
          "name": "spender",
          "type": "address",
          "indexed": true
        },
        {
          "name": "id",
          "type": "uint256",
          "indexed": true
        }
      ],
      "anonymous": false
    },
    {
      "type": "event",
      "name": "ApprovalForAll",
      "inputs": [
        {
          "name": "owner",
          "type": "address",
          "indexed": true
        },
        {
          "name": "operator",
          "type": "address",
          "indexed": true
        },
        {
          "name": "approved",
          "type": "bool",
          "indexed": false
        }
      ],
      "anonymous": false
    },
    {
      "type": "event",
      "name": "MetaTransactionExecuted",
      "inputs": [
        {
          "name": "userAddress",
          "type": "address",
          "indexed": false
        },
        {
          "name": "relayerAddress",
          "type": "address",
          "indexed": false
        },
        {
          "name": "functionSignature",
          "type": "bytes",
          "indexed": false
        }
      ],
      "anonymous": false
    },
    {
      "type": "event",
      "name": "Transfer",
      "inputs": [
        {
          "name": "from",
          "type": "address",
          "indexed": true
        },
        {
          "name": "to",
          "type": "address",
          "indexed": true
        },
        {
          "name": "id",
          "type": "uint256",
          "indexed": true
        }
      ],
      "anonymous": false
    }
  ],
  "bytecode": {
    "object": "0x6080604052600160035534801561001557600080fd5b50612985806100256000396000f3fe60806040526004361061021a5760003560e01c80636281133d116101235780638a570a12116100ab578063e00dd1611161006f578063e00dd161146106da578063e288ea64146106f0578063e985e9c514610705578063eaaf1fca14610740578063f60fabe51461076057600080fd5b80638a570a121461061a57806395d89b411461062f578063a22cb46514610644578063b02c43d014610664578063c87b56dd146106ad57600080fd5b80636d43d9f1116100f25780636d43d9f114610581578063703bafd5146105a157806370a08231146105c15780637d882097146105ee5780637f386b6c1461060457600080fd5b80636281133d146104f55780636352211e146105155780636b31ee011461054b5780636c9980e11461056157600080fd5b806323b872dd116101a65780632d0335ab116101755780632d0335ab1461045757806334d894c91461048d57806340229cbb146104a25780634b6d69d3146104c2578063564b81ef146104e257600080fd5b806323b872dd1461038757806323edc94d146103a7578063277838df146103c757806329dcb0cf1461044157600080fd5b8063095ea7b3116101ed578063095ea7b3146102e45780630c53c51c14610306578063159b4962146103195780631ab2f6af146103395780631e86a9dc1461036757600080fd5b806301ffc9a71461021f578063059b2a101461025457806306fdde031461028c578063081812fc146102ae575b600080fd5b34801561022b57600080fd5b5061023f61023a3660046121cf565b610776565b60405190151581526020015b60405180910390f35b34801561026057600080fd5b50601154610274906001600160a01b031681565b6040516001600160a01b03909116815260200161024b565b34801561029857600080fd5b506102a16107c8565b60405161024b9190612255565b3480156102ba57600080fd5b506102746102c9366004612268565b6006602052600090815260409020546001600160a01b031681565b3480156102f057600080fd5b506103046102ff36600461229d565b610856565b005b6102a161031436600461237b565b61093d565b34801561032557600080fd5b506103046103343660046123ed565b610afc565b34801561034557600080fd5b50610359610354366004612268565b610c3b565b60405190815260200161024b565b34801561037357600080fd5b50601754610274906001600160a01b031681565b34801561039357600080fd5b506103046103a236600461240f565b610ca1565b3480156103b357600080fd5b506103046103c236600461245d565b610e68565b3480156103d357600080fd5b5060125461040c9061ffff808216916201000081048216916401000000008204811691600160301b8104821691600160401b9091041685565b6040805161ffff968716815294861660208601529285169284019290925283166060830152909116608082015260a00161024b565b34801561044d57600080fd5b5061035960145481565b34801561046357600080fd5b5061035961047236600461253a565b6001600160a01b031660009081526008602052604090205490565b34801561049957600080fd5b50610304610f4d565b3480156104ae57600080fd5b506103046104bd366004612268565b6110eb565b3480156104ce57600080fd5b506103596104dd366004612268565b61110f565b3480156104ee57600080fd5b5046610359565b34801561050157600080fd5b5061023f610510366004612555565b6112ba565b34801561052157600080fd5b50610274610530366004612268565b6005602052600090815260409020546001600160a01b031681565b34801561055757600080fd5b5061035960155481565b34801561056d57600080fd5b5061030461057c3660046125da565b611402565b34801561058d57600080fd5b5061035961059c366004612268565b61148f565b3480156105ad57600080fd5b50600f54610274906001600160a01b031681565b3480156105cd57600080fd5b506103596105dc36600461253a565b60046020526000908152604090205481565b3480156105fa57600080fd5b50610359600b5481565b34801561061057600080fd5b5061035960135481565b34801561062657600080fd5b506103046114b3565b34801561063b57600080fd5b506102a161163e565b34801561065057600080fd5b5061030461065f36600461266d565b61164b565b34801561067057600080fd5b5061069861067f366004612268565b6009602052600090815260409020805460019091015482565b6040805192835260208301919091520161024b565b3480156106b957600080fd5b506106cd6106c8366004612268565b6116b7565b60405161024b91906126a4565b3480156106e657600080fd5b5061035960035481565b3480156106fc57600080fd5b506103046117b4565b34801561071157600080fd5b5061023f6107203660046126fc565b600760209081526000928352604080842090915290825290205460ff1681565b34801561074c57600080fd5b5061030461075b3660046123ed565b611842565b34801561076c57600080fd5b50610359600a5481565b60006301ffc9a760e01b6001600160e01b0319831614806107a757506380ac58cd60e01b6001600160e01b03198316145b806107c25750635b5e139f60e01b6001600160e01b03198316145b92915050565b600080546107d59061272f565b80601f01602080910402602001604051908101604052809291908181526020018280546108019061272f565b801561084e5780601f106108235761010080835404028352916020019161084e565b820191906000526020600020905b81548152906001019060200180831161083157829003601f168201915b505050505081565b6000818152600560205260409020546001600160a01b03163381148061089f57506001600160a01b038116600090815260076020908152604080832033845290915290205460ff165b6108e15760405162461bcd60e51b815260206004820152600e60248201526d1393d517d055551213d49256915160921b60448201526064015b60405180910390fd5b60008281526006602052604080822080546001600160a01b0319166001600160a01b0387811691821790925591518593918516917f8c5be1e5ebec7d5bd14f71427d1e84f3dd0314c0f7b2291e5b200ac8c7c3b92591a4505050565b6001600160a01b03851660009081526008602052604090205460609061096990879046888888886112ba565b6109bf5760405162461bcd60e51b815260206004820152602160248201527f5369676e657220616e64207369676e617475726520646f206e6f74206d6174636044820152600d60fb1b60648201526084016108d8565b6001600160a01b03861660009081526008602052604081208054916109e383612780565b9190505550600080306001600160a01b03168789604051602001610a0892919061279b565b60408051601f1981840301815290829052610a22916127d2565b6000604051808303816000865af19150503d8060008114610a5f576040519150601f19603f3d011682016040523d82523d6000602084013e610a64565b606091505b509150915081610ab65760405162461bcd60e51b815260206004820152601c60248201527f46756e6374696f6e2063616c6c206e6f74207375636365737366756c0000000060448201526064016108d8565b7f5845892132946850460bff5a0083f71031bc5bf9aadcd40f1de79423eac9b10b883389604051610ae9939291906127ee565b60405180910390a1979650505050505050565b6000818152600560205260409020546001600160a01b031633148015610b2457506013548210155b8015610b3257506014544211155b610b3b57600080fd5b6040805160a08101825260125461ffff80821683526201000082048116602084018190526401000000008304821694840194909452600160301b820481166060840152600160401b90910416608082015290610bae9061271090610b9f908661281a565b610ba99190612839565b611897565b805161271090610bc29061ffff168561281a565b610bcc9190612839565b60156000828254610bdd919061285b565b909155505060208101518151600091610bf591612873565b610c0190612710612899565b61ffff1690506000612710610c16838761281a565b610c209190612839565b9050610c2a6118cc565b610c348185611969565b5050505050565b600a54600082815260096020526040812054909182916402540be40091610c619161281a565b610c6b9190612839565b600084815260096020526040902060010154909150610c90906402540be40090612839565b610c9a90826128bc565b9392505050565b6000818152600560205260409020546001600160a01b03848116911614610cf75760405162461bcd60e51b815260206004820152600a60248201526957524f4e475f46524f4d60b01b60448201526064016108d8565b6001600160a01b038216610d415760405162461bcd60e51b81526020600482015260116024820152701253959053125117d49150d25412515395607a1b60448201526064016108d8565b336001600160a01b0384161480610d6e57506000818152600660205260409020546001600160a01b031633145b80610d9c57506001600160a01b038316600090815260076020908152604080832033845290915290205460ff165b610dd95760405162461bcd60e51b815260206004820152600e60248201526d1393d517d055551213d49256915160921b60448201526064016108d8565b6001600160a01b0380841660008181526004602090815260408083208054600019019055938616808352848320805460010190558583526005825284832080546001600160a01b03199081168317909155600690925284832080549092169091559251849392917fddf252ad1be2c89b69c2b068fc378daa952ba7f163c4a11628f55a4df523b3ef91a4505050565b612710610e75888a612873565b61ffff161115610e8457600080fd5b610e9082828c8c611402565b6040805160a08101825261ffff8a81168083528a8216602084018190528883169484018590529187166060840181905260046080909401939093526012805463ffffffff1916909117620100009092029190911767ffffffff00000000191664010000000090930267ffff000000000000191692909217600160301b9091021769ffff000000000000000019166804000000000000000017905560138690556016859055610f3e854261285b565b60145550505050505050505050565b6011546001600160a01b0316610f935760405162461bcd60e51b815260206004820152600b60248201526a4e6f20537472617465677960a81b60448201526064016108d8565b6000612710600b54611388610fa8919061281a565b610fb29190612839565b90506000600e5482610fc491906128bc565b905080600e6000828254610fd8919061285b565b9250508190555080600d6000828254610ff1919061285b565b9250508190555080600c600082825461100a91906128bc565b9091555050600f5460115460405163095ea7b360e01b81526001600160a01b0391821660048201526024810184905291169063095ea7b3906044016020604051808303816000875af1158015611064573d6000803e3d6000fd5b505050506040513d601f19601f8201168201806040525081019061108891906128d3565b5060115460405163b6b55f2560e01b8152600481018390526001600160a01b039091169063b6b55f2590602401600060405180830381600087803b1580156110cf57600080fd5b505af11580156110e3573d6000803e3d6000fd5b505050505050565b60006110f68261148f565b90506111028183611ac4565b61110b82611d22565b5050565b6000601354821015801561112557506014544211155b6111715760405162461bcd60e51b815260206004820152601b60248201527f556e646572706169642c206f72207061737420646561646c696e65000000000060448201526064016108d8565b6040805160a08101825260125461ffff8082168084526201000083048216602085018190526401000000008404831695850195909552600160301b830482166060850152600160401b90920416608083015290916000916111d29190612873565b6111de90612710612899565b61ffff16905060006127106111f3838761281a565b6111fd9190612839565b90506001600354111561125e57611224612710846020015161ffff1687610b9f919061281a565b8251612710906112389061ffff168761281a565b6112429190612839565b60156000828254611253919061285b565b9091555061128e9050565b602083015183516127109161127291612873565b6112809061ffff168761281a565b61128a9190612839565b6015555b601780546001600160a01b031916331790556112a86118cc565b6112b181611def565b95945050505050565b600080611337883089896040516020016112d794939291906128f0565b60408051601f1981840301815282825280516020918201207f19457468657265756d205369676e6564204d6573736167653a0a33320000000084830152603c8085019190915282518085039091018152605c909301909152815191012090565b6040805160008082526020820180845284905260ff87169282019290925260608101889052608081018790529192509060019060a0016020604051602081039080840390855afa15801561138f573d6000803e3d6000fd5b5050604051601f1901519150506001600160a01b0381166113e65760405162461bcd60e51b8152602060048201526011602482015270496e76616c6964207369676e617475726560781b60448201526064016108d8565b6001600160a01b038a8116911614915050979650505050505050565b601054156114485760405162461bcd60e51b8152602060048201526013602482015272105b1c9958591e48125b9a5d1a585b1a5e9959606a1b60448201526064016108d8565b6114528484611f25565b601180546001600160a01b039283166001600160a01b031991821617909155600f8054939092169216919091179055505060016003819055601055565b600061149a82610c3b565b6000838152600960205260409020546107c2919061285b565b600c54600f546040516370a0823160e01b8152306004820152600092916001600160a01b0316906370a0823190602401602060405180830381865afa158015611500573d6000803e3d6000fd5b505050506040513d601f19601f820116820180604052508101906115249190612936565b61152e91906128bc565b905080600c6000828254611542919061285b565b90915550506011546000906001600160a01b03166115615760006115e5565b600d54601160009054906101000a90046001600160a01b03166001600160a01b031663192366376040518163ffffffff1660e01b8152600401602060405180830381865afa1580156115b7573d6000803e3d6000fd5b505050506040513d601f19601f820116820180604052508101906115db9190612936565b6115e591906128bc565b905080600d60008282546115f9919061285b565b9091555050600b5461160b828461285b565b61161a906402540be40061281a565b6116249190612839565b600a6000828254611635919061285b565b90915550505050565b600180546107d59061272f565b3360008181526007602090815260408083206001600160a01b03871680855290835292819020805460ff191686151590811790915590519081529192917f17307eab39ab6107e8899845ad3d59bd9653f200f220920489ca2b5937696c31910160405180910390a35050565b6116f26040518060a001604052806060815260200160006001600160a01b031681526020016000815260200160008152602001600081525090565b6040518060a001604052806000805461170a9061272f565b80601f01602080910402602001604051908101604052809291908181526020018280546117369061272f565b80156117835780601f1061175857610100808354040283529160200191611783565b820191906000526020600020905b81548152906001019060200180831161176657829003601f168201915b505050918352505030602082015260400161179d8461148f565b815260200183815260200160008152509050919050565b60145442116117c257600080fd5b600f5460175460155460405163a9059cbb60e01b81526001600160a01b039283166004820152602481019190915291169063a9059cbb906044016020604051808303816000875af115801561181b573d6000803e3d6000fd5b505050506040513d601f19601f8201168201806040525081019061183f91906128d3565b50565b600061184d8261148f565b90508083146118895760405162461bcd60e51b81526020600482015260086024820152672ab9b290313ab93760c11b60448201526064016108d8565b611892826110eb565b505050565b600b546118a9826402540be40061281a565b6118b39190612839565b600a60008282546118c4919061285b565b909155505050565b601254601654612710916118ed9164010000000090910461ffff169061281a565b6118f79190612839565b6016600082825461190891906128bc565b90915550506016546014805460009061192290849061285b565b90915550506012546013546127109161194791600160301b90910461ffff169061281a565b6119519190612839565b60136000828254611962919061285b565b9091555050565b6000818152600560205260409020546001600160a01b0316611989611f4c565b6001600160a01b03161461199c57600080fd5b600b54156119ac576119ac6114b3565b600081815260096020526040812080548492906119ca90849061285b565b9091555050600a546119dc908361281a565b600082815260096020526040812060010180549091906119fd90849061285b565b9250508190555081600b6000828254611a16919061285b565b9250508190555081600c6000828254611a2f919061285b565b9091555050600f546001600160a01b03166323b872dd611a4d611f4c565b6040516001600160e01b031960e084901b1681526001600160a01b039091166004820152306024820152604481018590526064016020604051808303816000875af1158015611aa0573d6000803e3d6000fd5b505050506040513d601f19601f8201168201806040525081019061189291906128d3565b611acc6114b3565b6000818152600560205260409020546001600160a01b0316611aec611f4c565b6001600160a01b0316148015611b0a5750611b068161148f565b8211155b611b1357600080fd5b600f546040516370a0823160e01b81523060048201526000916001600160a01b0316906370a0823190602401602060405180830381865afa158015611b5c573d6000803e3d6000fd5b505050506040513d601f19601f82011682018060405250810190611b809190612936565b9050600080611b8e84610c3b565b905080851115611c1657611ba281866128bc565b600085815260096020526040812080549294508492909190611bc59084906128bc565b9250508190555081600b6000828254611bde91906128bc565b9091555050600a54600085815260096020526040902054611bff919061281a565b600085815260096020526040902060010155611c4c565b611c25856402540be40061281a565b60008581526009602052604081206001018054909190611c4690849061285b565b90915550505b6000838611611c5c576000611c66565b611c6684876128bc565b90508015611c8f57611c7781611fab565b82600e6000828254611c8991906128bc565b90915550505b600f546001600160a01b031663a9059cbb611ca8611f4c565b6040516001600160e01b031960e084901b1681526001600160a01b039091166004820152602481018990526044016020604051808303816000875af1158015611cf5573d6000803e3d6000fd5b505050506040513d601f19601f82011682018060405250810190611d1991906128d3565b50505050505050565b6000818152600560205260409020546001600160a01b031680611d745760405162461bcd60e51b815260206004820152600a6024820152691393d517d3525395115160b21b60448201526064016108d8565b6001600160a01b038116600081815260046020908152604080832080546000190190558583526005825280832080546001600160a01b031990811690915560069092528083208054909216909155518492907fddf252ad1be2c89b69c2b068fc378daa952ba7f163c4a11628f55a4df523b3ef908390a45050565b600080611e05611dfd611f4c565b60035461201b565b600b5490915015611e1857611e186114b3565b6000818152600960205260409020839055600a54611e36908461281a565b60008281526009602052604081206001018054909190611e5790849061285b565b9250508190555082600b6000828254611e70919061285b565b9250508190555082600c6000828254611e89919061285b565b9091555050600f546001600160a01b03166323b872dd611ea7611f4c565b6040516001600160e01b031960e084901b1681526001600160a01b039091166004820152306024820152604481018690526064016020604051808303816000875af1158015611efa573d6000803e3d6000fd5b505050506040513d601f19601f82011682018060405250810190611f1e91906128d3565b5092915050565b8051611f38906001906020840190612136565b508151611892906000906020850190612136565b600033301415611fa357600080368080601f0160208091040260200160405190810160405280939291908181526020018383808284376000920191909152505050503601516001600160a01b03169150611fa89050565b503390565b90565b601154604051632e1a7d4d60e01b8152600481018390526001600160a01b0390911690632e1a7d4d90602401600060405180830381600087803b158015611ff157600080fd5b505af1158015612005573d6000803e3d6000fd5b5050505080600d60008282546118c491906128bc565b60006001600160a01b0383166120675760405162461bcd60e51b81526020600482015260116024820152701253959053125117d49150d25412515395607a1b60448201526064016108d8565b6000828152600560205260409020546001600160a01b0316156120bd5760405162461bcd60e51b815260206004820152600e60248201526d1053149150511657d3525395115160921b60448201526064016108d8565b6001600160a01b038316600081815260046020908152604080832080546001908101909155600380549091019055858352600590915280822080546001600160a01b0319168417905551849291907fddf252ad1be2c89b69c2b068fc378daa952ba7f163c4a11628f55a4df523b3ef908290a450919050565b8280546121429061272f565b90600052602060002090601f01602090048101928261216457600085556121aa565b82601f1061217d57805160ff19168380011785556121aa565b828001600101855582156121aa579182015b828111156121aa57825182559160200191906001019061218f565b506121b69291506121ba565b5090565b5b808211156121b657600081556001016121bb565b6000602082840312156121e157600080fd5b81356001600160e01b031981168114610c9a57600080fd5b60005b838110156122145781810151838201526020016121fc565b83811115612223576000848401525b50505050565b600081518084526122418160208601602086016121f9565b601f01601f19169290920160200192915050565b602081526000610c9a6020830184612229565b60006020828403121561227a57600080fd5b5035919050565b80356001600160a01b038116811461229857600080fd5b919050565b600080604083850312156122b057600080fd5b6122b983612281565b946020939093013593505050565b634e487b7160e01b600052604160045260246000fd5b600082601f8301126122ee57600080fd5b813567ffffffffffffffff80821115612309576123096122c7565b604051601f8301601f19908116603f01168101908282118183101715612331576123316122c7565b8160405283815286602085880101111561234a57600080fd5b836020870160208301376000602085830101528094505050505092915050565b803560ff8116811461229857600080fd5b600080600080600060a0868803121561239357600080fd5b61239c86612281565b9450602086013567ffffffffffffffff8111156123b857600080fd5b6123c4888289016122dd565b94505060408601359250606086013591506123e16080870161236a565b90509295509295909350565b6000806040838503121561240057600080fd5b50508035926020909101359150565b60008060006060848603121561242457600080fd5b61242d84612281565b925061243b60208501612281565b9150604084013590509250925092565b803561ffff8116811461229857600080fd5b6000806000806000806000806000806101408b8d03121561247d57600080fd5b6124868b612281565b995061249460208c01612281565b98506124a260408c0161244b565b97506124b060608c0161244b565b965060808b0135955060a08b013594506124cc60c08c0161244b565b93506124da60e08c0161244b565b92506101008b013567ffffffffffffffff808211156124f857600080fd5b6125048e838f016122dd565b93506101208d013591508082111561251b57600080fd5b506125288d828e016122dd565b9150509295989b9194979a5092959850565b60006020828403121561254c57600080fd5b610c9a82612281565b600080600080600080600060e0888a03121561257057600080fd5b61257988612281565b96506020880135955060408801359450606088013567ffffffffffffffff8111156125a357600080fd5b6125af8a828b016122dd565b9450506080880135925060a088013591506125cc60c0890161236a565b905092959891949750929550565b600080600080608085870312156125f057600080fd5b843567ffffffffffffffff8082111561260857600080fd5b612614888389016122dd565b9550602087013591508082111561262a57600080fd5b50612637878288016122dd565b93505061264660408601612281565b915061265460608601612281565b905092959194509250565b801515811461183f57600080fd5b6000806040838503121561268057600080fd5b61268983612281565b915060208301356126998161265f565b809150509250929050565b602081526000825160a060208401526126c060c0840182612229565b905060018060a01b0360208501511660408401526040840151606084015260608401516080840152608084015160a08401528091505092915050565b6000806040838503121561270f57600080fd5b61271883612281565b915061272660208401612281565b90509250929050565b600181811c9082168061274357607f821691505b6020821081141561276457634e487b7160e01b600052602260045260246000fd5b50919050565b634e487b7160e01b600052601160045260246000fd5b60006000198214156127945761279461276a565b5060010190565b600083516127ad8184602088016121f9565b60609390931b6bffffffffffffffffffffffff19169190920190815260140192915050565b600082516127e48184602087016121f9565b9190910192915050565b6001600160a01b038481168252831660208201526060604082018190526000906112b190830184612229565b60008160001904831182151516156128345761283461276a565b500290565b60008261285657634e487b7160e01b600052601260045260246000fd5b500490565b6000821982111561286e5761286e61276a565b500190565b600061ffff8083168185168083038211156128905761289061276a565b01949350505050565b600061ffff838116908316818110156128b4576128b461276a565b039392505050565b6000828210156128ce576128ce61276a565b500390565b6000602082840312156128e557600080fd5b8151610c9a8161265f565b8481526bffffffffffffffffffffffff198460601b166020820152826034820152600082516129268160548501602087016121f9565b9190910160540195945050505050565b60006020828403121561294857600080fd5b505191905056fea2646970667358221220ffb908d714137f6f1a6ea41d554af916aaa234378fdb8f051646848cf9e462b664736f6c634300080b0033",
    "linkReferences": {}
  }
}